:100000000C942A000C9447000C9447000C94470071
:100010000C9447000C9447000C9447000C94470044
:100020000C9447000C94CD070C9447000C944700A7
:100030000C9464040C9447000C9447000C94470003
:100040000C9447000C9447000C9447000C94470014
:100050000C94470011241FBECFE5D8E0DEBFCDBF12
:1000600010E0A0E6B0E0E4E9F4E102C005900D92F2
:10007000A238B107D9F720E0A2E8B0E001C01D9294
:10008000A83AB207E1F70E9483010C94480A0C9445
:100090000000CF93DF93CDB7DEB71092950010929A
:1000A000910010929200109293001092940010927E
:1000B0009A0010929B0010929C0010929D0010924A
:1000C0008800109287001092900010928300109286
:1000D0008400109285001092860010929600109273
:1000E0009700109298001092990010929E00109222
:1000F0009F001092A0001092A10080E690E00E9464
:100100001F0384E790E00E94120889E690E00E94B5
:10011000E40480E10E94220184E00E9422010000A8
:10012000DF91CF910895EF92FF920F931F93CF939A
:10013000DF93CDB7DEB780E10E944201882319F03A
:1001400081E08093820084E00E944201882311F0C4
:10015000109282008091870090918800892B09F489
:1001600051C080918200882309F44CC020919E00E8
:1001700030919F004091A0005091A1008091960085
:1001800090919700A0919800B091990079018A010F
:10019000E81AF90A0A0B1B0BD801C70180939100DA
:1001A00090939200A0939300B093940020919100BB
:1001B000309192004091930050919400809183007F
:1001C00090918400A0918500B0918600BC01CD0182
:1001D0000E94B309DC01CB01982F80919500890F13
:1001E0008093950080919E0090919F00A091A00027
:1001F000B091A1008093960090939700A0939800EF
:10020000B09399000000DF91CF911F910F91FF9063
:10021000EF900895CF93DF93CDB7DEB7809195002F
:10022000882F90E0A0E0B0E0BC01CD010E9433092E
:1002300064EF71E080E090E00E9477090000DF91B8
:10024000CF910895CF93DF931F92CDB7DEB7898307
:100250008981882F90E08430910549F0409709F01A
:100260000CC040E064E082E00E94FC0106C040E077
:1002700062E081E00E94FC01000000000F90DF912D
:10028000CF910895CF93DF9300D000D0CDB7DEB7E4
:100290008C838FEF89838C81882F90E08430910547
:1002A000B1F0409741F564E082E00E94A8028A83A1
:1002B00064E082E00E94A8028B839A818B81981768
:1002C00019F48A81898317C08FEF898314C062E093
:1002D00081E00E94A8028A8362E081E00E94A80275
:1002E0008B839A818B81981719F48A81898302C044
:1002F0008FEF8983000089810F900F900F900F90EE
:10030000DF91CF910895CF93DF93CDB7DEB70E94F1
:1003100049000E9493000E940A01FBCFCF93DF9314
:1003200000D0CDB7DEB789836A838981882F90E0BA
:100330008130910591F0823091051CF4892B39F0C0
:100340001EC08230910579F0039799F018C08AE3B6
:1003500090E02A81FC01208312C087E390E02A818B
:10036000FC0120830CC084E390E02A81FC012083FF
:1003700006C081E390E02A81FC0120830000000098
:100380000F900F90DF91CF910895CF93DF9300D01E
:10039000CDB7DEB789836A838981882F90E0813069
:1003A000910591F0823091051CF4892B39F01EC023
:1003B0008230910579F0039799F018C08BE390E0B3
:1003C0002A81FC01208312C088E390E02A81FC018D
:1003D00020830CC085E390E02A81FC01208306C0C5
:1003E00082E390E02A81FC012083000000000F904E
:1003F0000F90DF91CF910895CF93DF9300D01F929C
:10040000CDB7DEB789836A834B838981882F90E0DB
:100410008130910581F1823091051CF4892B49F0DE
:1004200090C08230910509F448C0039709F467C071
:1004300088C08B81882F90E0009721F08F3F910535
:1004400071F07FC08AE390E02AE330E0F901208177
:10045000322F2A8120952323FC0120830BC08AE3BD
:1004600090E02AE330E0F90130812A81232BFC015E
:100470002083000066C08B81882F90E0009721F0D8
:100480008F3F910571F05DC087E390E027E330E096
:10049000F9012081322F2A8120952323FC0120831A
:1004A0000BC087E390E027E330E0F90130812A8137
:1004B000232BFC012083000044C08B81882F90E017
:1004C000009721F08F3F910571F03BC084E390E0ED
:1004D00024E330E0F9012081322F2A812095232363
:1004E000FC0120830BC084E390E024E330E0F901B9
:1004F00030812A81232BFC012083000022C08B81C4
:10050000882F90E0009721F08F3F910571F018C07F
:1005100081E390E021E330E0F9012081322F2A814C
:1005200020952323FC0120830BC081E390E021E38D
:1005300030E0F90130812A81232BFC012083000067
:10054000000000000F900F900F90DF91CF91089561
:10055000CF93DF9300D01F92CDB7DEB78A836B8332
:1005600019828A81882F90E081309105E9F08230EC
:1005700091051CF4892B39F04AC08230910529F18C
:100580000397A1F144C089E390E0FC018081882FAA
:1005900090E02B81222F30E002C0959587952A9517
:1005A000E2F78170898333C086E390E0FC018081AB
:1005B000882F90E02B81222F30E002C095958795FF
:1005C0002A95E2F78170898322C083E390E0FC01E1
:1005D0008081882F90E02B81222F30E002C09595FA
:1005E00087952A95E2F78170898311C080E390E0B6
:1005F000FC018081882F90E02B81222F30E002C007
:10060000959587952A95E2F7817089830000898105
:100610000F900F900F90DF91CF910895CF93DF93BC
:10062000CDB7DEB78FE590E02FE530E0F90120810E
:100630002068FC0120830000DF91CF910895CF93C3
:10064000DF9300D01F92CDB7DEB79B838A8381E012
:1006500089838A819B81FC018081882F90E00097AB
:10066000D9F0019741F54FEF60E181E00E94FC0174
:100670004FEF60E281E00E94FC014FEF60E881E013
:100680000E94FC018DE290E02DE230E0F901208132
:100690002061FC01208311C04FEF60E481E00E94E3
:1006A000FC018DE290E02DE230E0F90120812F7E07
:1006B000FC01208302C0198200008A819B81FC0119
:1006C0008181882F90E0009719F0019759F014C0AC
:1006D0008DE290E02DE230E0F9012081277FFC01DE
:1006E00020830CC08DE290E02DE230E0F901208102
:1006F0002860FC01208302C0198200008A819B814E
:10070000FC018281882F90E0009771F00197B1F48D
:100710008DE290E02DE230E0F90120812068FC01BB
:1007200020830E940E030CC08DE290E02DE230E0A9
:10073000F90120812F77FC01208302C0198200007B
:100740008A819B81FC018381882F90E0009719F0BA
:10075000019759F014C08DE290E02DE230E0F901EC
:1007600020812F7DFC0120830CC08DE290E02DE2E2
:1007700030E0F90120812062FC01208302C019824F
:1007800000008A819B81FC018481882F90E0009782
:1007900019F0019759F014C08DE290E02DE230E09D
:1007A000F90120812B7FFC0120830CC08DE290E0B9
:1007B0002DE230E0F90120812460FC01208302C099
:1007C000198200008A819B81FC018581882F90E03D
:1007D00081309105F9F0823091051CF4892B39F0B4
:1007E00052C08230910549F10397D1F14CC08DE29E
:1007F00090E02DE230E0F90120812E7FFC01208382
:100800008DE290E02DE230E0F90120812D7FFC01A6
:1008100020833BC08DE290E02DE230E0F9012081A1
:100820002160FC0120838DE290E02DE230E0F901AF
:1008300020812D7FFC01208328C08DE290E02DE2F5
:1008400030E0F90120812E7FFC0120838DE290E0D1
:100850002DE230E0F90120812260FC01208315C0E7
:100860008DE290E02DE230E0F90120812160FC0171
:1008700020838DE290E02DE230E0F90120812260BA
:10088000FC01208302C0198200008DE290E02DE27D
:1008900030E0F90120812064FC0120836FEF80E0CB
:1008A0000E948E0189810F900F900F90DF91CF9160
:1008B0000895CF93DF93CDB7DEB78FE290E0FC01D0
:1008C0008081DF91CF9108951F920F9200905F0079
:1008D0000F9211242F933F934F935F936F937F93C6
:1008E0008F939F93AF93BF93EF93FF93CF93DF9338
:1008F000CDB7DEB70E9459048093890080918900AA
:10090000682F80E00E94C501809187009091880047
:10091000892BB9F580918900882F90E0A0E0B0E0A4
:1009200080939A0090939B00A0939C00B0939D00AD
:1009300081E090E0909388008093870081E00E949E
:10094000900780919A0090919B00A0919C00B0919B
:100950009D008093960090939700A0939800B09389
:10096000990080919A0090919B00A0919C00B09179
:100970009D0080939E0090939F00A093A000B09351
:10098000A10080918900882F90E0A0E0B0E08093E2
:10099000830090938400A0938500B09386000000AC
:1009A000DF91CF91FF91EF91BF91AF919F918F9187
:1009B0007F916F915F914F913F912F910F90009296
:1009C0005F000F901F901895CF93DF9300D01F9278
:1009D000CDB7DEB79B838A8319828A819B81FC0114
:1009E00087819085A185B28580938A0090938B0042
:1009F000A0938C00B0938D008A819B81FC01808143
:100A0000882F90E08130910509F464C0823091050F
:100A100009F4CCC0892B09F026C183E590E023E5D9
:100A200030E0F90140812A813B81F9012181242BA9
:100A3000FC01208389E590E029E530E0F90140815F
:100A40002A813B81F9012681242BFC01208380919E
:100A50006600882F90E082309105E9F0833091059F
:100A60002CF4009761F0019779F031C08430910542
:100A700001F184309105B4F0059711F128C010926E
:100A8000A5001092A40023C081E090E09093A500FF
:100A90008093A4001CC088E090E09093A500809310
:100AA000A40015C080E490E09093A5008093A4007A
:100AB0000EC080E091E09093A5008093A40007C051
:100AC00080E094E09093A5008093A400000081E072
:100AD0008983CBC08FE490E02FE430E0F9012081DE
:100AE000422F2A813B81F90121812370242BFC01B3
:100AF00020838EE490E02EE430E0F9012081422F43
:100B00002A813B81F90121812871242BFC0120835A
:100B100089E590E029E530E0F90120812460FC01BD
:100B200020830E940E0380916700882F90E082301E
:100B30009105E9F0833091052CF4009761F001975D
:100B400079F031C08430910501F184309105B4F021
:100B5000059711F128C01092A7001092A60023C09B
:100B600081E090E09093A7008093A6001CC088E0ED
:100B700090E09093A7008093A60015C080E490E0D9
:100B80009093A7008093A6000EC080E091E0909320
:100B9000A7008093A60007C080E094E09093A70090
:100BA0008093A600000081E089835FC085E490E027
:100BB00025E430E0F90140812A813B81F90121815E
:100BC000242BFC01208389E590E029E530E0F90140
:100BD00040812A813B81F9012681242BFC0120835D
:100BE00080916800882F90E082309105E9F0833091
:100BF00091052CF4009761F0019779F031C08630AF
:100C0000910501F18730910521F10497A1F028C0E9
:100C10001092A3001092A20023C081E090E0909374
:100C2000A3008093A2001CC088E090E09093A300F2
:100C30008093A20015C080E490E09093A30080937D
:100C4000A2000EC080E091E09093A3008093A200E8
:100C500007C080E094E09093A3008093A20000007E
:100C600081E0898302C0198200008A819B81FC0196
:100C700082819381A481B5812A813B81F901208100
:100C8000AC01BD01822F0E944C0689810F900F900C
:100C90000F90DF91CF910895CF93DF93CDB7DEB75B
:100CA0002D970FB6F894DEBF0FBECDBF89874A8758
:100CB0005B876C877D8719821A821B821C828985DB
:100CC000882F90E08130910509F461C08230910550
:100CD00009F4BDC0892B09F014C18091A400909142
:100CE000A500CC01A0E0B0E09C01AD0160E472E49D
:100CF0008FE090E00E94B309DC01CB0120918A00D3
:100D000030918B0040918C0050918D00BC01CD0141
:100D10000E94C309DA01C9019C01AD018A859B8546
:100D2000AC85BD85BC01CD010E94C309DA01C901B2
:100D30008D839E83AF83B8878D819E81AF81B88577
:100D400081309140A105B10528F019821A821B82D9
:100D50001C82DCC08D819E8120E031E0A901481B0E
:100D6000590BCA0190938F0080938E0082E590E02A
:100D700020918E0030918F00FC01208381E090E073
:100D8000A0E0B0E089839A83AB83BC83BFC080912D
:100D9000A6009091A700CC01A0E0B0E09C01AD01BD
:100DA00060E472E48FE090E00E94B309DC01CB01C3
:100DB00020918A0030918B0040918C0050918D00E1
:100DC000BC01CD010E94C309DA01C9019C01AD013A
:100DD0008A859B85AC85BD85BC01CD010E94C30978
:100DE000DA01C9018D839E83AF83B8878D819E818F
:100DF000AF81B8850197A140B10528F019821A8208
:100E00001B821C8283C08D819E8191958195910961
:100E100090938F0080938E008DE490E020918E005F
:100E200030918F00232F3327FC0120838CE490E046
:100E300020918E0030918F00FC01208381E090E0B2
:100E4000A0E0B0E089839A83AB83BC835FC08091CC
:100E5000A2009091A300CC01A0E0B0E09C01AD0104
:100E600060E472E48FE090E00E94B309DC01CB0102
:100E700020918A0030918B0040918C0050918D0020
:100E8000BC01CD010E94C309DA01C9019C01AD0179
:100E90008A859B85AC85BD85BC01CD010E94C309B7
:100EA000DA01C9018D839E83AF83B8878D819E81CE
:100EB000AF81B88581309140A105B10528F0198234
:100EC0001A821B821C8222C08D819E8120E031E02B
:100ED000A901481B590BCA0190938F0080938E0083
:100EE00084E490E020918E0030918F00FC012083FB
:100EF00081E090E0A0E0B0E089839A83AB83BC837B
:100F000005C019821A821B821C82000089812D96DD
:100F10000FB6F894DEBF0FBECDBFDF91CF9108951D
:100F2000CF93DF931F92CDB7DEB789838981882F56
:100F300090E08130910599F082309105E1F0892BA4
:100F400009F026C083E590E023E530E0F901208137
:100F5000287F30916600232BFC01208319C040912B
:100F600067008EE490E02EE430E0F9012081242B2C
:100F7000FC0120830DC085E490E025E430E0F90118
:100F80002081287F30916800232BFC012083000002
:100F900081E00F90DF91CF9108951F920F92009002
:100FA0005F000F9211242F933F934F935F936F93A2
:100FB0007F938F939F93AF93BF93EF93FF93CF93C1
:100FC000DF93CDB7DEB780919E0090919F00A091F6
:100FD000A000B091A1000196A11DB11D80939E00BB
:100FE00090939F00A093A000B093A10040E452E42E
:100FF0006FE070E081E00E944C060000DF91CF912D
:10100000FF91EF91BF91AF919F918F917F916F91E0
:101010005F914F913F912F910F9000925F000F9041
:101020001F901895EF92FF920F931F93CF93DF932A
:1010300000D000D000D0CDB7DEB79E838D8381E095
:10104000898380E88A838D819E81FC012185328598
:10105000438554858D819E81FC0180819181A2818F
:10106000B381880F991FAA1FBB1F880F991FAA1F42
:10107000BB1F880F991FAA1FBB1F880F991FAA1F8C
:10108000BB1F7C018D01CA01B901A80197010E9413
:10109000C309DA01C90101979C838B838A81806827
:1010A0008A838A8182608A838A8184608A838AE2D1
:1010B00090E02AE230E0F90120812B7FFC012083BF
:1010C0008D819E81FC018481882F90E0009761F0E2
:1010D0000197A1F48AE290E02AE230E0F901208150
:1010E0002061FC0120830CC08AE290E02AE230E01B
:1010F000F90120812F7EFC01208302C019820000AB
:101100008D819E81FC018581882F90E0009761F0A0
:101110000197A1F48AE290E02AE230E0F90120810F
:101120002860FC0120830CC08AE290E02AE230E0D3
:10113000F9012081277FFC01208302C01982000071
:101140008D819E81FC018681882F90E08130910500
:1011500061F08230910581F0892BA9F48A818F7E1C
:101160008A838A818F7D8A8310C08A818F7E8A8359
:101170008A8180628A8309C08A8180618A838A81A8
:1011800080628A8302C0198200008D819E81FC01E9
:101190008781882F90E08130910519F0029729F01E
:1011A00008C08A81877F8A8306C08A8188608A8393
:1011B00002C0198200008D819E81FC018085882FEC
:1011C00090E0009771F00197B1F48AE290E02AE292
:1011D00030E0F90120812068FC0120830E940E0389
:1011E0000CC08AE290E02AE230E0F90120812F77FA
:1011F000FC01208302C01982000080E490E02A8173
:10120000FC01208389E290E023E3FC0120838981B3
:1012100026960FB6F894DEBF0FBECDBFDF91CF91FB
:101220001F910F91FF90EF900895CF93DF931F923E
:10123000CDB7DEB7898300008BE290E0FC018081AE
:10124000829586958770882F90E081709927892BE9
:1012500099F38CE290E02981FC01208381E00F90DA
:10126000DF91CF9108950F931F93CF93DF93CDB765
:10127000DEB72F970FB6F894DEBF0FBECDBF6C87D9
:101280007D878E879F878C859D859E012E5F3F4F32
:101290004AE050E0B9010E94080A19820FC0898112
:1012A000882F90E09E012E5F3F4F820F931FFC011D
:1012B00080810E94150989818F5F89838981082F28
:1012C00010E0CE0102960E94FF090817190738F3B3
:1012D0008DE20E94150981E02F960FB6F894DEBFCB
:1012E0000FBECDBFDF91CF911F910F910895CF9386
:1012F000DF93CDB7DEB728970FB6F894DEBF0FBEE9
:10130000CDBF6D837E838F8398872D813E814F81F2
:10131000588580E49FE1DC010E94E509DC01CB01F6
:1013200089839A83AB83BC830BC089819A81AB810B
:10133000BC810997A109B10989839A83AB83BC83D6
:1013400089819A81AB81BC81181619061A061B0681
:1013500064F3000028960FB6F894DEBF0FBECDBF31
:10136000DF91CF910895DB018F939F930E94E50950
:10137000BF91AF91A29F800D911DA39F900DB29F31
:10138000900D11240895A1E21A2EAA1BBB1BFD018A
:101390000DC0AA1FBB1FEE1FFF1FA217B307E40754
:1013A000F50720F0A21BB30BE40BF50B661F771FAC
:1013B000881F991F1A9469F760957095809590958C
:1013C0009B01AC01BD01CF0108950E94F009A59FCA
:1013D000900DB49F900DA49F800D911D1124089530
:1013E000A29FB001B39FC001A39F700D811D112466
:1013F000911DB29F700D811D1124911D0895FC0156
:1014000001900020E9F7809590958E0F9F1F089519
:101410004532510520F4423010F00C94130AFB01C0
:101420001082CB010895BB274A3031F4992322F46E
:10143000BDE2909581959F4F0C941F0ABB27FB013D
:101440005527AA27880F991FAA1FA41710F0A41BBD
:1014500083955051B9F7A05DAA3308F0A95DA19317
:10146000009779F7B111B1931192CB010C94380A1E
:10147000DC01FC01672F71917723E1F7329704C0FB
:101480007C916D9370836291AE17BF07C8F3089586
:04149000F894FFCFFE
:10149400000101010000010501010040420F0001AB
:1014A40000127A0080250000010100010000127A78
:0214B400000036
:00000001FF
