:100000000C942A000C9459250C9447000C9447003A
:100010000C9447000C94281F0C9447000C94470044
:100020000C9447000C943D1A0C9447000C949016C5
:100030000C94CA220C94FC110C9447000C94A71148
:100040000C9447000C9447000C9447000C94470014
:100050000C94470011241FBECFE5D8E0DEBFCDBF12
:1000600011E0A0E6B0E0E4E8F7E702C005900D92E9
:10007000AE3AB107D9F712E0AEEAB1E001C01D9285
:10008000AA31B107E1F70E94243B0C94C03B0C94C9
:100090000000A0E3B0E0EFE4F0E00C94893BA8E0BE
:1000A0004E010894811C911CF401BA2F1192BA954B
:1000B000E9F729833A834B835C836D837E838F8347
:1000C0009887CE010996FC011192AA95E9F7A986B5
:1000D000BA86CB86DC86ED86FE860F87188B298153
:1000E0003A814B815C812DA73EA74FA758AB790180
:1000F0008A018FEF9FEFA0E0B0E0E822F9220A2307
:100100001B231A014424552429853A854B855C8597
:1001100029A73AA74BA75CA759016A01A822B922CF
:10012000CA22DB223A0188249924C601B501A8011C
:1001300097010E94343B6DA37EA38FA398A7C401AF
:10014000B3010E94343B69A37AA38BA39CA3C6018D
:10015000B501A20191010E94343B7B018C01C401D5
:10016000B3010E94343B5B016C0189A19AA1ABA150
:10017000BCA18E0D9F1DA01FB11F89A39AA3ABA385
:10018000BCA32DA13EA14FA158A5CA01AA27BB27F8
:1001900029A13AA14BA15CA1280F391F4A1F5B1F5F
:1001A00029A33AA34BA35CA32E153F054007510793
:1001B00040F480E090E0A1E0B0E0A80EB91ECA1EB5
:1001C000DB1E89A19AA1ABA1BCA19D0144275527A3
:1001D0002A0D3B1D4C1D5D1D2D8F3E8F4F8F58A34B
:1001E0006C01BB24AA248DA19EA1AFA1B8A5A070CB
:1001F000B070A80EB91ECA1EDB1EA98EBA8ECB8E99
:10020000DC8E9A8C8B8C7C8C9E8D6F8D78A1FE0100
:10021000719688E0DF011D928A95E9F72D8B9E8B00
:100220006F8B788F2D853E854F8558896DA57EA56E
:100230008FA598A90E94343B7B018C012D813E81C2
:100240004F81588569A57AA58BA59CA50E94343B52
:10025000E60EF71E081F191F6D897E898F89988DFC
:100260006E0D7F1D801F911F6D8B7E8B8F8B988FE6
:10027000EE892A2D392D482D572D7E2F8F89988D67
:10028000E096E2E10C94A53BEF92FF920F931F934F
:100290007B018C0120E030E040E05FE40E94180D1B
:1002A00088238CF0C801B70120E030E040E05FE433
:1002B0000E94E40A0E94780D9B01AC01205030405E
:1002C0004040504806C0C801B7010E94780D9B010C
:1002D000AC01B901CA011F910F91FF90EF900895F1
:1002E000A2E7B0E0E6E7F1E00C94893B982E892E76
:1002F000712E88E0FE013196DF01682E1D926A940E
:10030000E9F729833A834B835C836D837E839F82E5
:100310009887FE013996DF011D928A95E9F7A98633
:10032000BA86CB86DC86ED86FE860F87188B8D819C
:100330009E81AF81B885B7FD07C0E1961CAE1DAEAA
:100340001EAE1FAEE19764C0219581E0121608F041
:1003500080E0319591E0131608F090E0B32FB81BC0
:1003600081E03B1708F080E0982B419531E01416AE
:1003700008F030E0A42FA91B81E04A1708F080E0C4
:10038000382B519591E0151608F090E0F52FF31BEE
:1003900081E05F1708F080E0982B619531E0161638
:1003A00008F030E0E62FE91B81E06E1708F080E0EE
:1003B000382B719541E0171608F040E0572F531B7A
:1003C00081E0751708F080E0482B892D819591E038
:1003D000181608F090E0682E641A462D31E0861554
:1003E00008F030E0932B882D8195891B2983BA83EF
:1003F000AB83FC83ED835E834F8388872FEF3FEFD2
:100400004FEF5FEFE1962CAF3DAF4EAF5FAFE1979F
:100410008D859E85AF85B889B7FF6AC0E1964CADE2
:100420005DAD6EAD7FADE19740955095609570954F
:10043000E1964CAF5DAF6EAF7FAFE197A19481E0E5
:100440001A1408F080E0B19491E01B1408F090E0D9
:100450006B2D681B81E0B61608F080E0982BC194E4
:1004600021E01C1408F020E05C2D591B81E0C5162A
:1004700008F080E0282BD19491E01D1408F090E062
:100480004D2D421B81E0D41608F080E0982BE194BA
:1004900021E01E1408F020E03E2D391B81E0E31618
:1004A00008F080E0282BF19491E01F1408F090E010
:1004B0007F2D721B272F81E0F71608F080E0982B24
:1004C000019511E0101608F010E0802F891B982F7D
:1004D00081E0091708F080E0182B872D8195811B9A
:1004E000A9866A875B874C873D872E879F87888B85
:1004F00099812A813B814C815D816E817F81A885B4
:10050000B9851A850B85FC84ED84DE84CF84B88898
:1005100088E0E1E18E2E912C8C0E9D1EF401682E58
:1005200011926A94E9F7998B2A8B3B8B4C8B5D8BEC
:100530006E8B7F8BA88F9E01275E3F4FF901119232
:100540008A95E9F7B98F1A8F0B8FFC8EED8EDE8EB0
:10055000CF8EB8A2298C3A8C4B8C5C8CED8CFE8CA7
:100560000F8D18A169887A888B889C8821966CAE3B
:100570007DAE8EAE9FAE21976D887E888F88988CD9
:10058000E114F1040105110509F0D9C362147304E3
:100590008404950408F057C100E0201600E03006FE
:1005A00001E0400600E0500688F41FEF21163104F8
:1005B0004104510439F030F048E0E42EF12C012DD3
:1005C000112D18C0EE24FF24870114C020E022164C
:1005D00020E0320620E0420621E0520630F038E109
:1005E000E32EF12C012D112D05C020E1E22EF12C7E
:1005F000012D112DD201C1010E2C04C0B695A79575
:10060000979587950A94D2F788599F4FDC012C91D2
:1006100080E290E0A0E0B0E08E199F09A00BB10B42
:100620007C018D01E21AF10801091109E114F104BC
:1006300001051105D1F10E2C04C0220C331C441C01
:10064000551C0A94D2F7A40193010E2C04C0220F6A
:10065000331F441F551F0A94D2F780E290E08E1991
:100660009F0921966CAC7DAC8EAC9FAC219704C0E9
:1006700096948794779467948A95D2F7622A732A1E
:10068000842A952A2196ACACBDACCEACDFAC2197C8
:1006900004C0AA0CBB1CCC1CDD1CEA94D2F721962A
:1006A000ACAEBDAECEAEDFAE21976201EE24FF242C
:1006B0002996CCAEDDAEEEAEFFAE29979201810158
:1006C000207030702D960CAF1DAF2EAF3FAF2D9721
:1006D000C401B301A70196010E94673B7B018C0115
:1006E000C401B30129962CAD3DAD4EAD5FAD299748
:1006F0000E94673BC901DA013C014D01C401B3010D
:100700002D962CAD3DAD4EAD5FAD2D970E94343B87
:100710009B01AC018701FF24EE242196ACACBDAC5B
:10072000CEACDFAC2197C601AA27BB2757016801D1
:10073000A82AB92ACA2ADB2AA216B306C406D506F5
:10074000E0F408946108710881089108A20CB31CB8
:10075000C41CD51CA214B304C404D50470F0A216A2
:10076000B306C406D50648F40894610871088108E8
:100770009108A20CB31CC41CD51CA21AB30AC40A4B
:10078000D50AC601B50129962CAD3DAD4EAD5FAD84
:1007900029970E94673B7B018C01C601B501299610
:1007A0002CAD3DAD4EAD5FAD29970E94673BC901B1
:1007B000DA015C016D01C601B5012D962CAD3DAD90
:1007C0004EAD5FAD2D970E94343B9B01AC0187017C
:1007D000FF24EE2421968CAD9DADAEADBFAD21972B
:1007E000A070B070E82AF92A0A2B1B2BE216F30638
:1007F00004071507C0F40894A108B108C108D1087E
:10080000E20CF31C041D151DE214F3040405150588
:1008100050F0E216F3060407150728F40894A1081F
:10082000B108C108D108D30199278827860175012D
:10083000E82AF92A0A2B1B2B2596ECAEFDAE0EAF4B
:100840001FAF2597EBC4211431044104510471F406
:1008500061E070E080E090E020E030E040E050E0D7
:100860000E94673BC901DA011C012D0100E020163E
:1008700000E0300601E0400600E0500688F41FEF7B
:10088000211631044104510431F028F048E050E0D1
:1008900060E070E017C040E050E060E070E012C03F
:1008A00020E0221620E0320620E0420621E0520637
:1008B00028F048E150E060E070E004C040E150E022
:1008C00060E070E0D201C101042E04C0B695A79586
:1008D000979587950A94D2F788599F4FDC012C9100
:1008E000E0E2EE2EF12C012D112DD801C701841B61
:1008F000950BA60BB70B821B9109A109B1090097B3
:10090000A105B10561F464015301A218B308C4083C
:10091000D50831E0632E712C812C912C24C1E396F3
:100920008FAFE397082E04C0220C331C441C551CC7
:100930000A94D2F7EE2DE81B640153010E2E04C079
:10094000D694C794B794A7940A94D2F7A4019301BC
:10095000E3960FACE39704C0220F331F441F551FCB
:100960000A94D2F721966CAC7DAC8EAC9FAC2197EB
:100970000E2E04C096948794779467940A94D2F7C5
:1009800084017301E22AF32A042B152BE9AEFAAE97
:100990000BAF1CAF32018824992492018101207091
:1009A000307061960CAF1DAF2EAF3FAF6197C6019F
:1009B000B501A40193010E94673B7B018C01C60134
:1009C000B501A40193010E94673BC901DA01659654
:1009D0008CAF9DAFAEAFBFAF6597BC01CD01619647
:1009E0002CAD3DAD4EAD5FAD61970E94343B9B0198
:1009F000AC018701FF24EE24A9ACBAACCBACDCACD3
:100A0000C601AA27BB275C016D01AE28BF28C02AFA
:100A1000D12AA216B306C406D50660F565966CAD5C
:100A20007DAD8EAD9FAD6597615070408040904028
:100A300065966CAF7DAF8EAF9FAF6597A20CB31C70
:100A4000C41CD51CA214B304C404D50498F0A21687
:100A5000B306C406D50670F46150704080409040E3
:100A600065966CAF7DAF8EAF9FAF6597A20CB31C40
:100A7000C41CD51CA21AB30AC40AD50AC601B50102
:100A8000A40193010E94673B7B018C01C601B50163
:100A9000A40193010E94673BC901DA013C014D01A9
:100AA000C401B30161962CAD3DAD4EAD5FAD619714
:100AB0000E94343B9B01AC018701FF24EE2489ADE9
:100AC0009AADABADBCADA070B07057016801A82A5B
:100AD000B92ACA2ADB2AA216B306C406D506E0F450
:100AE00008946108710881089108A20CB31CC41C09
:100AF000D51CA214B304C404D50470F0A216B30626
:100B0000C406D50648F40894610871088108910864
:100B1000A20CB31CC41CD51C21968CAD9DADAEADF2
:100B2000BFAD2197E3960FACE39704C0880F991FE0
:100B3000AA1FBB1F0A94D2F721968CAF9DAFAEAF10
:100B4000BFAF2197A21AB30AC40AD50A6596ECACC6
:100B5000FDAC0EAD1FAD6597D70199278827682A90
:100B6000792A8A2A9B2A82012227332769960CAF89
:100B70001DAF2EAF3FAF6997A20191014070507039
:100B80006D962CAF3DAF4EAF5FAF6D97C601B5010F
:100B900069962CAD3DAD4EAD5FAD69970E94673B48
:100BA0007B018C01C601B50169962CAD3DAD4EAD02
:100BB0005FAD69970E94673BC901DA01A1968CAFCE
:100BC0009DAFAEAFBFAFA197BC01CD016D962CAD6F
:100BD0003DAD4EAD5FAD6D970E94343B9B01AC01C6
:100BE0008701FF24EE242196ACACBDACCEACDFACCB
:100BF0002197C601AA27BB2757016801A82AB92A4D
:100C0000CA2ADB2AA216B306C406D50660F5A19649
:100C10006CAD7DAD8EAD9FADA197615070408040B1
:100C20009040A1966CAF7DAF8EAF9FAFA197A20C05
:100C3000B31CC41CD51CA214B304C404D50498F07E
:100C4000A216B306C406D50670F461507040804009
:100C50009040A1966CAF7DAF8EAF9FAFA197A20CD5
:100C6000B31CC41CD51CA21AB30AC40AD50AC601F7
:100C7000B50169962CAD3DAD4EAD5FAD69970E9453
:100C8000673B7B018C01C601B50169962CAD3DAD7A
:100C90004EAD5FAD69970E94673BC901DA015C0107
:100CA0006D01C601B5016D962CAD3DAD4EAD5FAD8C
:100CB0006D970E94343B9B01AC018701FF24EE2419
:100CC00021968CAD9DADAEADBFAD2197A070B0703B
:100CD000E82AF92A0A2B1B2BE216F306040715074C
:100CE000C0F40894A108B108C108D108E20CF31CB3
:100CF000041D151DE214F3040405150550F0E21659
:100D0000F3060407150728F40894A108B108C108E0
:100D1000D108A196ECACFDAC0EAD1FADA197D701EB
:100D20009927882796018501082B192B2A2B3B2B05
:100D300025960CAF1DAF2EAF3FAF259772C26E1434
:100D40007F048006910608F45FC220E0E21620E0EE
:100D5000F20621E0020720E0120788F43FEFE316D5
:100D6000F1040105110531F028F048E050E060E0A1
:100D700070E017C040E050E060E070E012C040E07A
:100D8000E41640E0F40640E0040741E0140728F0D0
:100D900048E150E060E070E004C040E150E060E015
:100DA00070E0D801C701042E04C0B695A7959795A9
:100DB00087950A94D2F788599F4FDC012C9130E235
:100DC000A32EB12CC12CD12CD601C501841B950BAF
:100DD000A60BB70B821B9109A109B1090097A105C8
:100DE000B10599F4E614F7040805190508F4FEC1E5
:100DF00021966CAC7DAC8EAC9FAC219762147304D1
:100E00008404950408F0F2C1FFC1E2968FAFE29727
:100E1000082E04C0EE0CFF1C001F111F0A94D2F70D
:100E20006A2D681BD201C101062E04C0B695A79594
:100E3000979587950A94D2F75C016D01AE28BF287B
:100E4000C02AD12AADAABEAACFAAD8AE720161012A
:100E5000E2960FACE29704C0CC0CDD1CEE1CFF1C2C
:100E60000A94D2F7C9AADAAAEBAAFCAA6401530130
:100E7000062E04C0D694C794B794A7940A94D2F7C8
:100E8000D401C301E2960FACE29704C0880F991F0A
:100E9000AA1FBB1F0A94D2F72196ECACFDAC0EAD95
:100EA0001FAD219704C016950795F794E7946A95AE
:100EB000D2F737014801682A792A8A2A9B2A6DA627
:100EC0007EA68FA698AAEDA8FEA80FA918AD380196
:100ED000882499249801870120703070A5960CAF62
:100EE0001DAF2EAF3FAFA597C601B501A401930179
:100EF0000E94673B7B018C01C601B501A4019301EF
:100F00000E94673BC901DA011C012D01C201B10138
:100F1000A5962CAD3DAD4EAD5FADA5970E94343B7F
:100F20009B01AC018701FF24EE24ADA4BEA4CFA495
:100F3000D8A8C601AA27BB2757016801A82AB92A41
:100F4000CA2ADB2AA216B306C406D50600F5089401
:100F50002108310841085108EDA8FEA80FA918ADD5
:100F6000AE0CBF1CC01ED11EAE14BF04C006D106FD
:100F700070F0A216B306C406D50648F408942108FA
:100F8000310841085108AE0CBF1CC01ED11EA21A68
:100F9000B30AC40AD50AC601B501A40193010E948F
:100FA000673B7B018C01C601B501A40193010E943E
:100FB000673BC901DA013C014D01C401B301A596AB
:100FC0002CAD3DAD4EAD5FADA5970E94343B9B016E
:100FD000AC018701FF24EE248DA59EA5AFA5B8A97D
:100FE000A070B07057016801A82AB92ACA2ADB2A62
:100FF000A216B306C406D50600F508946108710868
:10100000810891086DA97EA98FA998ADA60EB71E7B
:10101000C81ED91EA616B706C806D90670F0A216B5
:10102000B306C406D50648F408946108710881081F
:101030009108A60EB71EC81ED91ED601C501821B77
:10104000930BA40BB50B89A79AA7ABA7BCA7D1019B
:101050009927882764015301A82AB92ACA2ADB2ABA
:101060002596ACAEBDAECEAEDFAE2597860175013E
:101070002FEF3FEF40E050E0E222F322042315235C
:10108000A60166277727AD964CAF5DAF6EAF7FAFF9
:10109000AD97A9A8BAA8CBA8DCA86FEF7FEF80E036
:1010A00090E0A622B722C822D92289A99AA9ABA981
:1010B000BCA91D0144245524C801B701A60195010E
:1010C0000E94343BA9966CAF7DAF8EAF9FAFA997BE
:1010D000C801B701A20191010E94343B3B014C01C0
:1010E000AD966CAD7DAD8EAD9FADAD97A601950172
:1010F0000E94343B7B018C01AD966CAD7DAD8EAD15
:101100009FADAD97A20191010E94343B5B016C0140
:10111000A8019701260D371D481D591DA9966CACD5
:101120007DAC8EAC9FACA997C401AA27BB27280F22
:10113000391F4A1F5B1F2E153F054007510748F412
:10114000E12CF12C61E0062F112DAE0CBF1CC01E4E
:10115000D11ECA01AA27BB27BC01CD016A0D7B1D88
:101160008C1D9D1D69A47AA48BA49CA46616770689
:101170008806990650F1661577058805990509F0E6
:101180004DC0D90199278827A9962CAD3DAD4EAD0C
:101190005FADA99740705070820F931FA41FB51FB9
:1011A00021962CAD3DAD4EAD5FAD2197E2960FACD3
:1011B000E29704C0220F331F441F551F0A94D2F731
:1011C000281739074A075B0748F525960CAD1DAD72
:1011D0002EAD3FAD25970150104020403040259660
:1011E0000CAF1DAF2EAF3FAF259718C066247724F4
:1011F000430121E030E040E050E025962CAF3DAFC8
:101200004EAF5FAF25970DC0662477244301259626
:101210001CAE1DAE1EAE1FAE259703C066247724FC
:101220004301FE01B19688E0DF011D928A95E9F73E
:101230002596ACACBDACCEACDFAC2597A9A2BAA2CA
:10124000CBA2DCA26DA27EA28FA298A622962FAD81
:1012500022973AA14BA15CA1662D7EA1DFA098A5A3
:10126000E196ECACFDAC0EAD1FADE197E114F104DD
:101270000105110509F456C0219581E0121608F008
:1012800080E03195E1E0131608F0E0E0932E981A23
:1012900081E0391508F080E0E82B4195F1E0141663
:1012A00008F0F0E0A42EAE1A81E04A1508F080E0C4
:1012B000F82B5195E1E0151608F0E0E0B52EBF1AC5
:1012C00081E05B1508F080E0E82B6195F1E01616EF
:1012D00008F0F0E0A62FAE1B81E06A1708F080E06E
:1012E000F82B7195E1E0171608F0E0E0C72ECF1A51
:1012F00081E07C1508F080E0E82B8D2D8195F1E0F0
:10130000181608F0F0E0D82EDE1AE1E08D1508F08E
:10131000E0E0FE2B892F8195392DA5016A2F7C2DC8
:10132000982F9F1B8D2DCE58DF4FE2E10C94A53BEB
:10133000A0E0B0E0EEE9F9E00C94893BDC012B0180
:10134000FA019C91923008F439C1EB018881823016
:1013500008F433C1943069F4843009F02FC1119638
:101360009C9111978981981709F428C1A0E6B0E0F3
:1013700025C1843009F421C18230A9F4923009F0EA
:101380001DC19A01AD0188E0EA010990AE01E901B1
:1013900009929E018150C1F7E201898111969C91C9
:1013A0008923818308C1923009F407C112962D90D8
:1013B0003C901397EB018A819B811496AD90BD9070
:1013C000CD90DC901797EC80FD800E811F819101FC
:1013D000281B390BB90137FF04C066277727621B2A
:1013E000730B603271050CF061C0121613066CF5B8
:1013F00037014801062E04C0969487947794679429
:101400000A94D2F721E030E040E050E004C0220F1F
:10141000331F441F551F6A95D2F72150304040407A
:1014200050402E213F2140235123211531054105F4
:10143000510521F021E030E040E050E079018A01DF
:10144000E628F728082919293CC0232BD1F1260EBC
:10145000371E35014601062E04C096948794779472
:1014600067940A94D2F721E030E040E050E004C0F5
:10147000220F331F441F551F6A95D2F72150304069
:10148000404050402A213B214C215D21211531054E
:101490004105510521F021E030E040E050E05901E4
:1014A0006A01A628B728C828D9280BC08215930539
:1014B0002CF01C01AA24BB24650103C0EE24FF24E8
:1014C000870111969C91D20111968C91981709F47D
:1014D00045C0992339F0A80197012A193B094C0905
:1014E0005D0906C0A60195012E193F09400B510B5D
:1014F00057FD08C0118233822282248335834683BC
:1015000057831DC081E081833382228288279927F7
:10151000DC01821B930BA40BB50B84839583A683FC
:10152000B7830DC0220F331F441F551F24833583FB
:101530004683578382819381019793838283248199
:10154000358146815781DA01C9010197A109B109A5
:101550008F5F9F4FAF4FBF4328F30BC09183338200
:101560002282EA0CFB1C0C1D1D1DE482F582068301
:10157000178383E08083248135814681578157FF1B
:101580001AC0C901AA2797FDA095BA2F8170907043
:10159000A070B0705695479537952795822B932B61
:1015A000A42BB52B84839583A683B78382819381F3
:1015B000019693838283DF0101C0D201CD01CDB7B3
:1015C000DEB7E2E10C94A53BA0E2B0E0EAEEFAE07F
:1015D0000C94953B69837A838B839C832D833E8314
:1015E0004F835887E9E0EE2EF12CEC0EFD1ECE0164
:1015F0000196B7010E94690F8E010F5E1F4FCE0149
:101600000596B8010E94690F8A8991E089278A8B23
:10161000C701B801AE01475E5F4F0E9498090E9462
:10162000940EA096E6E00C94B13BA0E2B0E0EBE1B2
:10163000FBE00C94953B69837A838B839C832D8399
:101640003E834F835887F9E0EF2EF12CEC0EFD1E00
:10165000CE010196B7010E94690F8E010F5E1F4FE8
:10166000CE010596B8010E94690FC701B801AE010D
:10167000475E5F4F0E9498090E94940EA096E6E094
:101680000C94B13BA0E2B0E0E8E4FBE00C94893BB1
:1016900069837A838B839C832D833E834F83588712
:1016A000CE010196BE01675F7F4F0E94690FCE0198
:1016B0000596BE016F5E7F4F0E94690F998592303B
:1016C00088F089898230C8F0943019F4823051F45E
:1016D00004C0843029F4923081F480E690E0C6C0E2
:1016E000923049F420E09A858A89981321E02A876C
:1016F000CE010996BBC0823049F420E09A858A89E0
:10170000981321E02A8BCE014196B0C02D843E84EF
:101710004F8458886D887E888F88988CEE24FF24AB
:101720008701AA24BB24650140E050E060E070E03E
:10173000E0E0F0E0C10181709070892BE9F0E60CE7
:10174000F71C081D191D9A01AB012A0D3B1D4C1DEC
:101750005D1D80E090E0A0E0B0E0E614F70408052D
:10176000190520F481E090E0A0E0B0E0BA01A90101
:10177000480F591F6A1F7B1FAA0CBB1CCC1CDD1C09
:1017800097FE08C081E090E0A0E0B0E0A82AB92A66
:10179000CA2ADB2A3196E032F10549F0660C771C43
:1017A000881C991C5694479437942794C3CFFA8584
:1017B000EA892B893C898B859C85280F391F2E5FF0
:1017C0003F4F17C0CA0181709070892B61F0169548
:1017D0000795F794E79480E090E0A0E0B0E8E82A6D
:1017E000F92A0A2B1B2B76956795579547952F5FFE
:1017F0003F4F77FDE7CF0CC0440F551F661F771F83
:1018000017FD4160EE0CFF1C001F111F21503040DE
:10181000403090E0590790E0690790E4790760F361
:101820002B8F3C8FDB01CA018F779070A070B07056
:1018300080349105A105B10561F447FD0AC0E114AA
:10184000F1040105110529F0405C5F4F6F4F7F4F98
:1018500040781A8EFE1711F081E08A8F4D8F5E8FCF
:101860006F8F78A383E0898FCE0149960E94940EF2
:10187000A096E2E10C94A53BA8E1B0E0E2E4FCE034
:101880000C94913B69837A838B839C832D833E8365
:101890004F835887B9E0EB2EF12CEC0EFD1ECE01E4
:1018A0000196B7010E94690F8E010F5E1F4FCE0196
:1018B0000596B8010E94690F2985223008F47EC080
:1018C0003989323010F4B8017CC08A859A89892719
:1018D0008A87243011F0223031F4231709F06EC0CA
:1018E00060E670E06EC0343039F41D861E861F86B7
:1018F000188A1C861B8604C0323021F484E0898754
:10190000B7015FC02B853C858B899C89281B390BCF
:101910003C872B87ED84FE840F851889AD88BE88AF
:10192000CF88D88CEA14FB040C051D0540F4EE0C9E
:10193000FF1C001F111F215030403C872B8720E0E7
:1019400030E040E050E080E090E0A0E0B0E460E013
:1019500070E0EA14FB040C051D0540F0282B392B20
:101960004A2B5B2BEA18FB080C091D09B695A795B5
:1019700097958795EE0CFF1C001F111F6F5F7F4F1F
:101980006F31710531F7DA01C9018F779070A0705E
:10199000B07080349105A105B10561F427FD0AC03E
:1019A000E114F1040105110529F0205C3F4F4F4F70
:1019B0005F4F20782D873E874F87588BBE01675F2A
:1019C0007F4FCB010E94940E6896EAE00C94AD3BE9
:1019D000A8E1B0E0EEEEFCE00C94953B69837A83DD
:1019E0008B839C832D833E834F83588789E0E82E29
:1019F000F12CEC0EFD1ECE010196B7010E94690F7D
:101A00008E010F5E1F4FCE010596B8010E94690F2F
:101A10008985823040F08989823028F0C701B80179
:101A20000E94E10F01C08FEF6896E6E00C94B13B95
:101A3000A8E1B0E0EEE1FDE00C94953B69837A8388
:101A40008B839C832D833E834F83588789E0E82EC8
:101A5000F12CEC0EFD1ECE010196B7010E94690F1C
:101A60008E010F5E1F4FCE010596B8010E94690FCF
:101A70008985823040F08989823028F0C701B80119
:101A80000E94E10F01C08FEF6896E6E00C94B13B35
:101A9000A8E1B0E0EEE4FDE00C94953B69837A8325
:101AA0008B839C832D833E834F83588789E0E82E68
:101AB000F12CEC0EFD1ECE010196B7010E94690FBC
:101AC0008E010F5E1F4FCE010596B8010E94690F6F
:101AD0008985823040F08989823028F0C701B801B9
:101AE0000E94E10F01C081E06896E6E00C94B13BF2
:101AF000ACE0B0E0EEE7FDE00C94993B69837A83BB
:101B00008B839C83CE010196BE016B5F7F4F0E9449
:101B1000690F8D81823061F1823050F1843021F47F
:101B20008E81882351F12EC02F81388537FD20C04A
:101B30006E812F3131051CF06623F9F023C08EE150
:101B400090E0821B930B29853A854B855C8504C008
:101B500056954795379527958A95D2F76623B1F024
:101B600050954095309521953F4F4F4F5F4F0EC098
:101B700020E030E040E050E009C02FEF3FEF4FEFB2
:101B80005FE704C020E030E040E050E8B901CA015E
:101B90002C96E2E00C94B53BA8E0B0E0E2EDFDE06D
:101BA0000C94913B7B018C016115710581059105B8
:101BB00019F482E0898360C083E089838EE1C82EB6
:101BC000D12CDC82CB82ED82FE820F831887C80184
:101BD000B7010E94450EFC013197F7FF3BC0222759
:101BE00033272E1B3F0B57016801022E04C0D694E9
:101BF000C794B794A7940A94D2F740E050E060E00D
:101C000070E081E090E0A0E0B0E004C0880F991F90
:101C1000AA1FBB1F2A95D2F70197A109B1098E21EE
:101C20009F21A023B1230097A105B10521F041E038
:101C300050E060E070E04A295B296C297D294D83E2
:101C40005E836F8378878EE190E08E1B9F0B9C8371
:101C50008B8312C0309781F00E2E04C0EE0CFF1C57
:101C6000001F111F0A94D2F7ED82FE820F8318879E
:101C7000CE1ADF0ADC82CB821A82CE0101960E9444
:101C8000940E2896EAE00C94AD3BEF92FF920F93EE
:101C90001F937B018C0180E0E81680E0F80681E06C
:101CA000080780E0180788F48FEFE816F1040105B3
:101CB000110531F028F088E090E0A0E0B0E017C016
:101CC00080E090E0A0E0B0E012C080E0E81680E0A4
:101CD000F80680E0080781E0180728F088E190E026
:101CE000A0E0B0E004C080E190E0A0E0B0E020E23D
:101CF00030E040E050E0281B390B4A0B5B0B04C07E
:101D000016950795F794E7948A95D2F7F701E85965
:101D1000FF4F8081281B310941095109C9011F91D9
:101D20000F91FF90EF900895DF92EF92FF920F9343
:101D30001F93FC01E480F58006811781D1808081AA
:101D4000823048F480E090E0A0E1B0E0E82AF92A8F
:101D50000A2B1B2BA5C0843009F49FC0823021F4CC
:101D6000EE24FF24870105C0E114F10401051105EB
:101D700019F4E0E0F0E096C0628173819FEF623871
:101D800079070CF05BC022E83FEF261B370B2A31A6
:101D900031052CF020E030E040E050E02AC0B801EE
:101DA000A701022E04C076956795579547950A942A
:101DB000D2F781E090E0A0E0B0E004C0880F991F66
:101DC000AA1FBB1F2A95D2F70197A109B1098E213D
:101DD0009F21A023B1230097A105B10521F081E047
:101DE00090E0A0E0B0E09A01AB01282B392B4A2B00
:101DF0005B2BDA01C9018F779070A070B0708034CE
:101E00009105A105B10539F427FF09C0205C3F4FBA
:101E10004F4F5F4F04C0215C3F4F4F4F5F4FE0E09B
:101E2000F0E02030A0E03A07A0E04A07A0E45A071B
:101E300010F0E1E0F0E079018A0127C06038710517
:101E400064F5FB01E158FF4FD801C7018F7790700F
:101E5000A070B07080349105A105B10539F4E7FE9A
:101E60000DC080E490E0A0E0B0E004C08FE390E01B
:101E7000A0E0B0E0E80EF91E0A1F1B1F17FF05C007
:101E800016950795F794E794319687E01695079590
:101E9000F794E7948A95D1F705C0EE24FF248701D3
:101EA000EFEFF0E06E2F679566276795902F9F778D
:101EB000D794DD24D7948E2F8695492F462B582F03
:101EC0005D29B701CA011F910F91FF90EF90DF903C
:101ED0000895FC01DB01408151812281622F6F77DF
:101EE00070E0221F2227221F9381892F880F822BC7
:101EF000282F30E0991F9927991F11969C931197CD
:101F000021153105A9F5411551056105710511F43A
:101F100082E037C082E89FEF13969C938E931297CE
:101F20009A01AB0167E0220F331F441F551F6A95CA
:101F3000D1F783E08C930DC0220F331F441F551F30
:101F400012968D919C911397019713969C938E9363
:101F50001297203080E0380780E0480780E4580777
:101F600058F314962D933D934D935C9317970895D2
:101F70002F3F310579F4411551056105710519F4BB
:101F800084E08C93089564FF03C081E08C9312C0B9
:101F90001C9210C02F57304013963C932E931297EB
:101FA00083E08C9387E0440F551F661F771F8A9547
:101FB000D1F7706414964D935D936D937C9317974E
:101FC00008951F93DC01FB019C91923008F447C0F7
:101FD0008081823008F443C0943051F411961C91F2
:101FE000843099F58181682F70E0611B71093FC0D1
:101FF000843021F0923031F48230B9F1818188232C
:1020000089F12DC011961C9111978230F1F08181D8
:102010001817D9F412962D913C91139782819381D0
:102020008217930794F028173907BCF014968D9106
:102030009D910D90BC91A02D2481358146815781C1
:10204000281739074A075B0718F4112341F00AC023
:1020500082179307A407B50740F4112319F061E034
:1020600070E005C06FEF7FEF02C060E070E0CB0171
:102070001F910895DF93CF93CDB7DEB729970FB6A1
:10208000F894DEBF0FBECDBF6B837C838D839E83B0
:102090004F831A8219828F81282F30E03987288751
:1020A000888599858130910579F128853985223097
:1020B000310509F449C088859985009709F05CC00D
:1020C0008B819C81AD81BE81880F991FAA1FBB1F88
:1020D000880F991FAA1FBB1F880F991FAA1FBB1F1C
:1020E000880F991FAA1FBB1F9C01AD0180E094E2DD
:1020F000A4EFB0E0BC01CD010E94673BDA01C90149
:1021000001979A8389833CC08B819C81AD81BE817C
:10211000880F991FAA1FBB1F880F991FAA1FBB1FDB
:10212000880F991FAA1FBB1F9C01AD0180E094E29C
:10213000A4EFB0E0BC01CD010E94673BDA01C90108
:1021400001979A8389831CC08B819C81AD81BE815C
:102150009C01AD01220F331F441F551F80E094E204
:10216000A4EFB0E0BC01CD010E94673BDA01C901D8
:1021700001979A83898304C083E390E09A838983DB
:1021800089819A8129960FB6F894DEBF0FBECDBF24
:10219000CF91DF910895DF93CF9300D000D0CDB7DA
:1021A000DEB780E88C831B82AAE2B0E0EAE2F0E0CE
:1021B000808180618C93AAE2B0E0EAE2F0E0808165
:1021C00088608C938C818F7B8C831B828C818F7E2B
:1021D0008C838C818F7D8C838C81877F8C838C8199
:1021E00082608C838C8184608C83AAE2B0E0EAE216
:1021F000F0E080818B7F8C938C818E7F8C83E0E4F8
:10220000F0E08C81808360E875E280E090E04B81B3
:102210000E943A109A838983E0E4F0E089819A81F0
:10222000892F99278083E9E2F0E0898180830F90EC
:102230000F900F900F90CF91DF910895DF93CF9380
:1022400000D0CDB7DEB79A8389838091AF01882310
:10225000A9F089819A81892F9927009741F0AAE2F4
:10226000B0E0EAE2F0E0808181608C9307C0AAE2EE
:10227000B0E0EAE2F0E080818E7F8C93EBE2F0E068
:102280008081882F90E0807290700097B9F3ECE223
:10229000F0E0898180830F900F90CF91DF910895B6
:1022A000DF93CF9300D0CDB7DEB7EBE2F0E08081D3
:1022B0008823DCF7ECE2F0E08081882F90E09A83BD
:1022C000898389819A810F900F90CF91DF91089532
:1022D000DF93CF9300D0CDB7DEB79A83898389810E
:1022E0009A819093B3018093B2010F900F90CF9198
:1022F000DF910895DF93CF9300D0CDB7DEB79A83F7
:10230000898389819A819093B1018093B0010F9064
:102310000F90CF91DF910895DF93CF9300D0CDB789
:10232000DEB79A83898389819A819093B5018093DE
:10233000B4010F900F90CF91DF910895DF93CF9369
:10234000CDB7DEB78091AE01CF91DF9108951F9296
:102350000F920FB60F9211242F933F934F935F93D9
:102360006F937F938F939F93AF93BF93EF93FF935D
:10237000DF93CF93CDB7DEB78091B0019091B101DB
:10238000009729F0E091B001F091B1010995809199
:10239000AF018823B9F08091B6019091B701892FE0
:1023A0009927009741F0AAE2B0E0EAE2F0E08081EC
:1023B00081608C9307C0AAE2B0E0EAE2F0E080819D
:1023C0008E7F8C93ECE2F0E08091B6019091B701A2
:1023D0008083CF91DF91FF91EF91BF91AF919F915A
:1023E0008F917F916F915F914F913F912F910F90BE
:1023F0000FBE0F901F9018951F920F920FB60F925D
:1024000011242F933F934F935F936F937F938F93F9
:102410009F93AF93BF93EF93FF93DF93CF93CDB78A
:10242000DEB78091AF01882339F0EAE2F0E08081E5
:10243000869581708093AF01ECE2F0E0808180931B
:10244000AE018091AF01882321F08091AE0180938D
:10245000AE01ECE2F0E08091AE01808381E00E9469
:102460006C348091B2019091B301009729F0E09112
:10247000B201F091B3010995CF91DF91FF91EF91F6
:10248000BF91AF919F918F917F916F915F914F918C
:102490003F912F910F900FBE0F901F901895DF93D3
:1024A000CF9300D000D00F92CDB7DEB79A83898347
:1024B0006B838B81282F30E03D832C838C819D8121
:1024C000009731F02C813D812130310569F017C032
:1024D000EBE4F0E089819A81892F99278083EAE4EF
:1024E000F0E0898180830BC0E7E4F0E089819A8184
:1024F000892F99278083E6E4F0E0898180830F901B
:102500000F900F900F900F90CF91DF910895DF9370
:10251000CF9300D0CDB7DEB79A83898389819A8122
:102520009093BE018093BD010F900F90CF91DF91EA
:102530000895DF93CF9300D0CDB7DEB79A83898318
:1025400089819A819093CC018093CB010F900F9059
:10255000CF91DF910895DF93CF9300D000D0CDB716
:10256000DEB79A83898385E08093BC01A3E5B0E060
:10257000E3E5F0E080818F7B8C93A3E5B0E0E3E5B9
:10258000F0E08081877F8C9381E00E943738A9E555
:10259000B0E0E9E5F0E0808181608C93E981FA8127
:1025A0008281813009F045C0E981FA818081882FDC
:1025B00090E0009771F4A3E5B0E0E3E5F0E08081FE
:1025C0008F7B8C93A3E5B0E0E3E5F0E08081877F2B
:1025D0008C93E981FA818181282F30E03C832B8321
:1025E0008B819C81009731F02B813C81213031051A
:1025F00089F01FC0A9E5B0E0E9E5F0E080818260E4
:102600008C9381E00E94373886E00E9441130E943B
:1026100020130FC081E00E943738A9E5B0E0E9E55A
:10262000F0E0808181608C9386E00E9441130E94DB
:1026300020130F900F900F900F90CF91DF9108957E
:10264000DF93CF93CDB7DEB7A3E5B0E0E3E5F0E0ED
:102650008081887F8C93A3E5B0E0E3E5F0E0908192
:102660008091BC01892B8C93CF91DF910895DF93EA
:10267000CF93CDB7DEB7E2E5F0E08081CF91DF9177
:102680000895DF93CF930F92CDB7DEB78983E2E54C
:10269000F0E0898180830F90CF91DF910895DF93DF
:1026A000CF93CDB7DEB7A3E5B0E0E3E5F0E08081FE
:1026B000887F8C93E2E5F0E01082CF91DF9108955E
:1026C000DF93CF93CDB7DEB767970FB6F894DEBF31
:1026D0000FBECDBF6B8B7C8B8D8B9E8B4F8B80E029
:1026E00090E0A0E8B4E48B879C87AD87BE876B85BC
:1026F0007C858D859E8520E034E244EF5AE40E947B
:102700003C0CDC01CB01BC01CD0120E034E244E70C
:1027100059E40E94420BDC01CB018F87988BA98B77
:10272000BA8B6F85788989899A8920E030E040E802
:1027300053E40E94420BDC01CB01BC01CD010E949D
:102740004401DC01CB018F839887A987BA878B89E5
:102750009C89AD89BE8928EE33E040E050E0BC01A1
:10276000CD010E94343BDC01CB012F8138854985A6
:102770005A85BC01CD010E94673BDA01C9018B83F8
:102780009C83AD83BE838B899C89AD89BE8928EEED
:1027900033E040E050E0BC01CD010E94343BDC015D
:1027A000CB012F81388549855A85BC01CD010E9416
:1027B000673BDC01CB019C0180E091E0821B930B25
:1027C0009A83898389819A818F3F910509F078F4F2
:1027D000E2E5F0E0898180838B819C81AD81BE81BF
:1027E0000196A11DB11D8B839C83AD83BE838B811C
:1027F0009C81AD81BE818093BF019093C001A09365
:10280000C101B093C2018091BF019091C001A0911C
:10281000C101B091C2018093C3019093C401A09300
:10282000C501B093C6010E9420138F89882F90E0C4
:1028300082309105E1F023C0E8E5F0E08081882F47
:1028400090E081709070882391F08B819C81AD81A4
:10285000BE810197A109B1098B839C83AD83BE839F
:10286000A8E5B0E0E8E5F0E0808181608C938B81A1
:102870009C81AD81BE810097A105B105E9F66796FF
:102880000FB6F894DEBF0FBECDBFCF91DF91089594
:10289000DF93CF93CDB7DEB78091B8019091B901A6
:1028A000A091BA01B091BB010196A11DB11D809309
:1028B000B8019093B901A093BA01B093BB01CF9135
:1028C000DF910895DF93CF93CDB7DEB788E494E12D
:1028D0000E9487121092C3011092C4011092C50188
:1028E0001092C6018091C3019091C401A091C501CD
:1028F000B091C6018093BF019093C001A093C10124
:10290000B093C2010E942013CF91DF910895DF930D
:10291000CF93CDB7DEB78091B8019091B901A09166
:10292000BA01B091BB01BC01CD01CF91DF910895F7
:10293000DF93CF93CDB7DEB71092B8011092B901F3
:102940001092BA011092BB01CF91DF910895DF93ED
:10295000CF9300D0CDB7DEB78091BC01813029F490
:1029600081E090E09A8389831FC08091BC0182300E
:1029700029F488E090E09A83898316C08091BC0195
:10298000833029F480E490E09A8389830DC080919C
:10299000BC01843029F480E091E09A83898304C0EB
:1029A00080E094E09A83898389819A810F900F90C7
:1029B000CF91DF9108950F931F93DF93CF93CDB7FE
:1029C000DEB769970FB6F894DEBF0FBECDBF6B8B35
:1029D0007C8B8D8B9E8B4F8B8F89282F30E0398F8E
:1029E000288F888D998D8130910521F1288D398D21
:1029F000223031052CF4888D998D009761F046C006
:102A0000288D398D2230310521F1888D998D8330C3
:102A1000910571F13BC0A3E5B0E0E3E5F0E0808112
:102A20008F7E8C93A3E5B0E0E3E5F0E080818F7DBD
:102A30008C932CC0A3E5B0E0E3E5F0E080818061F9
:102A40008C93A3E5B0E0E3E5F0E0808180628C93B5
:102A50001DC0A3E5B0E0E3E5F0E080818F7E8C93BC
:102A6000A3E5B0E0E3E5F0E0808180628C930EC0E6
:102A7000A3E5B0E0E3E5F0E0808180618C93A3E51D
:102A8000B0E0E3E5F0E080818F7D8C930E94A71495
:102A9000CC01A0E0B0E08F87988BA98BBA8B6F85B3
:102AA000788989899A890E94CC0DDC01CB01BC010F
:102AB000CD0120E034E244EF5AE40E943C0CDC01FA
:102AC000CB01BC01CD0120E034E244E759E40E948F
:102AD000420BDC01CB018B879C87AD87BE87809141
:102AE000C7019091C801A091C901B091CA01019696
:102AF000A11DB11DBC01CD010E94CC0DDC01CB019B
:102B0000BC01CD012B853C854D855E850E94420B25
:102B1000DC01CB01BC01CD010E944401DC01CB01F1
:102B20008F839887A987BA878B899C89AD89BE894D
:102B300028EE33E040E050E0BC01CD010E94343B80
:102B4000DC01CB012F81388549855A85BC01CD0137
:102B50000E94673BDA01C9018B839C83AD83BE83EE
:102B60008091C7019091C801A091C901B091CA019B
:102B70008C018B899C89AD89BE8928EE33E040E0C9
:102B800050E0BC01CD010E94343BDC01CB012F8120
:102B9000388549855A85BC01CD010E94673BDC011F
:102BA000CB019801281B390BC90101969A838983AF
:102BB00089819A819C0140E050E08091C701909109
:102BC000C801A091C901B091CA010196A11DB11D12
:102BD000281739074A075B0778F4E2E5F0E08981B6
:102BE00080838B819C81AD81BE810196A11DB11D29
:102BF0008B839C83AD83BE838B819C81AD81BE81A1
:102C00008093C3019093C401A093C501B093C60102
:102C10000E9420131BC0E8E5F0E08081882F90E03F
:102C200081709070882391F08B819C81AD81BE81F1
:102C30000197A109B1098B839C83AD83BE83A8E56D
:102C4000B0E0E8E5F0E0808181608C938B819C812D
:102C5000AD81BE810097A105B105E9F60E944F1331
:102C600069960FB6F894DEBF0FBECDBFCF91DF914E
:102C70001F910F910895DF93CF93CDB7DEB72797BC
:102C80000FB6F894DEBF0FBECDBF8F8388EE93E002
:102C90009E838D838F81282F30E08D819E81AC01B2
:102CA000249FC001259F900D349F900D112424E690
:102CB00030E0B9010E94533BCB019C838B832D8173
:102CC0003E818B819C81A901481B590BCA019A83C3
:102CD0008983E091CB01F091CC0109958B819C8196
:102CE000CC01A0E0B0E0BC01CD0142E00E94601345
:102CF000E091CB01F091CC01099589819A81CC01B9
:102D0000A0E0B0E0BC01CD0142E00E946013279634
:102D10000FB6F894DEBF0FBECDBFCF91DF910895FF
:102D20001F920F920FB60F9211242F933F934F9340
:102D30005F936F937F938F939F93AF93BF93EF9323
:102D4000FF93DF93CF93CDB7DEB78091BF01909112
:102D5000C001A091C101B091C2010097A105B105C8
:102D6000A1F08091BF019091C001A091C101B091EB
:102D7000C2010197A109B1098093BF019093C001DD
:102D8000A093C101B093C20115C08091C30190917D
:102D9000C401A091C501B091C6018093BF01909379
:102DA000C001A093C101B093C201E091BD01F091B7
:102DB000BE010995CF91DF91FF91EF91BF91AF9146
:102DC0009F918F917F916F915F914F913F912F9143
:102DD0000F900FBE0F901F901895DF93CF93CDB734
:102DE000DEB728970FB6F894DEBF0FBECDBF9A832B
:102DF0008983AFE4B0E0EFE4F0E080818E7F8C93D4
:102E0000AFE4B0E0EFE4F0E0808182608C93AEE468
:102E1000B0E0EEE4F0E08081877F8C93AEE4B0E038
:102E2000EEE4F0E0808180618C93AFE4B0E0EFE409
:102E3000F0E080818F7B8C93AFE4B0E0EFE4F0E0D2
:102E4000808180688C9385E08093CD01E981FA814F
:102E50008281813009F029C1E981FA818081282F9E
:102E600030E038872F838F81988581309105A1F1DB
:102E70002F813885223031052CF48F819885009779
:102E800071F08EC02F8138852230310509F441C0A0
:102E90008F8198858330910509F458C081C0AFE4D3
:102EA000B0E0EFE4F0E080818E7F8C93AFE4B0E09F
:102EB000EFE4F0E080818D7F8C93AEE4B0E0EEE44F
:102EC000F0E08081877F8C93AEE4B0E0EEE4F0E048
:102ED00080818F7E8C9364C0AFE4B0E0EFE4F0E0DB
:102EE00080818E7F8C93AFE4B0E0EFE4F0E08081EE
:102EF0008D7F8C93AEE4B0E0EEE4F0E080818860FA
:102F00008C93AEE4B0E0EEE4F0E080818F7E8C93B1
:102F100047C0AFE4B0E0EFE4F0E080818E7F8C93B7
:102F2000AFE4B0E0EFE4F0E080818D7F8C93AEE41D
:102F3000B0E0EEE4F0E0808188608C93AEE4B0E035
:102F4000EEE4F0E0808180618C932AC0AFE4B0E0D1
:102F5000EFE4F0E080818E7F8C93AFE4B0E0EFE4AB
:102F6000F0E0808182608C93AEE4B0E0EEE4F0E0CB
:102F70008081877F8C93AEE4B0E0EEE4F0E0808166
:102F800080618C93AFE4B0E0EFE4F0E080818F7B70
:102F90008C93AFE4B0E0EFE4F0E0808180688C9344
:102FA000E981FA818081282F30E03E832D838D8155
:102FB0009E818330910511F12D813E8124303105B0
:102FC00054F48D819E81009789F02D813E812230BD
:102FD000310581F01EC08D819E818430910591F074
:102FE0002D813E812530310589F013C081E0809329
:102FF000CD010FC082E08093CD010BC083E08093B0
:10300000CD0107C084E08093CD0103C085E08093AB
:10301000CD01E981FA818181282F30E03C832B8327
:103020008B819C818130910501F12B813C81223083
:1030300031052CF48B819C81009761F036C02B8187
:103040003C8122303105E1F08B819C8183309105F8
:1030500011F12BC081E00E943738A9E5B0E0E9E525
:10306000F0E0808184608C9320C081E00E9437383A
:10307000A9E5B0E0E9E5F0E0808188608C9315C0B7
:1030800081E00E943738A9E5B0E0E9E5F0E0808111
:1030900080618C930AC081E00E943738A9E5B0E0D6
:1030A000E9E5F0E0808180628C9328960FB6F89471
:1030B000DEBF0FBECDBFCF91DF9108950F931F9359
:1030C000DF93CF93CDB7DEB729970FB6F894DEBF65
:1030D0000FBECDBF8F837987688780E094E09E83A1
:1030E0008D83288539858D819E81AC01249FC00107
:1030F000259F900D349F900D1124880F991F9C01DE
:1031000040E050E080E092E1AAE7B0E0BC01CD01F0
:103110000E94673BDA01C90189839A83AB83BC8330
:10312000E6E4F0E089819A81918380830AE410E0EB
:103130008F81882F90E0A0E0B0E029813A814B8117
:103140005C81BC01CD010E94343BDC01CB0124E653
:1031500030E040E050E0BC01CD010E94673BDA0165
:10316000C901F801918380830E94C11829960FB686
:10317000F894DEBF0FBECDBFCF91DF911F910F91AD
:103180000895DF93CF93CDB7DEB7AEE4B0E0EEE4C1
:10319000F0E08081887F8C93AEE4B0E0EEE4F0E074
:1031A00090818091CD01892B8C93CF91DF910895EF
:1031B000DF93CF93CDB7DEB7AEE4B0E0EEE4F0E05E
:1031C0008081887F8C93EDE4F0E01082ECE4F0E005
:1031D0001082CF91DF910895DF93CF9300D0CDB7C8
:1031E000DEB79A838983EDE4F0E089819A81892FA3
:1031F00099278083ECE4F0E0898180830F900F9021
:10320000CF91DF910895DF93CF9300D0CDB7DEB794
:103210008091CD01813029F481E090E09A83898307
:103220001FC08091CD01823029F488E090E09A831C
:10323000898316C08091CD01833029F480E490E029
:103240009A8389830DC08091CD01843029F480E078
:1032500091E09A83898304C080E094E09A83898313
:1032600089819A810F900F90CF91DF910895DF931C
:10327000CF93CDB7DEB769970FB6F894DEBF0FBE18
:10328000CDBF6D8B7E8B8F8B988F498F0E940319DA
:10329000CC01A0E0B0E0898B9A8BAB8BBC8B6989A9
:1032A0007A898B899C890E94CC0DDC01CB01BC0101
:1032B000CD0120E030E040E051E40E943C0CDC0114
:1032C000CB018D879E87AF87B88B6D857E858F8577
:1032D000988920E030E040E857E40E94420BDC018E
:1032E000CB01BC01CD010E944401DC01CB018987E7
:1032F0009A87AB87BC878D899E89AF89B88D28EE68
:1033000033E040E050E0BC01CD010E94343BDC01E1
:10331000CB0129853A854B855C85BC01CD010E9496
:10332000673BDA01C9018D839E83AF83B8878D899E
:103330009E89AF89B88D28EE33E040E050E0BC01B3
:10334000CD010E94343BDC01CB0129853A854B85B8
:103350005C85BC01CD010E94673BDC01CB019C0177
:10336000AD0180E090E0A1E0B0E0821B930BA40BE4
:10337000B50B89839A83AB83BC8389819A81AB81A6
:10338000BC81803020E0920721E0A20720E0B20754
:1033900078F489819A810E94EC188D819E81AF8199
:1033A000B8850196A11DB11D8D839E83AF83B8871B
:1033B0008D819E81AF81B8858093D6019093D7018E
:1033C000A093D801B093D9018091D6019091D701F3
:1033D000A091D801B091D9018093D2019093D301EB
:1033E000A093D401B093D5010E94C118898D882F74
:1033F00090E084309105E1F025C0E8E5F0E08081BF
:10340000882F90E0847090700097B9F38D819E8131
:10341000AF81B8850197A109B1098D839E83AF83E0
:10342000B887A8E5B0E0E8E5F0E0808184608C939F
:103430008D819E81AF81B8850097A105B105E9F620
:103440000E94D81869960FB6F894DEBF0FBECDBFA4
:10345000CF91DF910895DF93CF9300D0CDB7DEB742
:103460009A83898389819A819093DB018093DA0121
:103470000F900F90CF91DF9108951F920F920FB68A
:103480000F9211242F933F934F935F936F937F93EA
:103490008F939F93AF93BF93EF93FF93DF93CF935C
:1034A000CDB7DEB78091D2019091D301A091D40124
:1034B000B091D5010097A105B105A1F08091D2018D
:1034C0009091D301A091D401B091D5010197A109A8
:1034D000B1098093D2019093D301A093D401B0930A
:1034E000D50115C08091D6019091D701A091D80146
:1034F000B091D9018093D2019093D301A093D401CC
:10350000B093D501E091DA01F091DB010995CF91FB
:10351000DF91FF91EF91BF91AF919F918F917F913B
:103520006F915F914F913F912F910F900FBE0F9030
:103530001F901895EF92FF920F931F93DF93CF93F5
:10354000CDB7DEB76B970FB6F894DEBF0FBECDBF19
:103550006D8B7E8B8F8B988F498F898D282F30E0D4
:103560003B8F2A8F4A8D5B8D4130510599F18A8DB1
:103570009B8D8230910534F42A8D3B8D21153105C8
:10358000D1F045C04A8D5B8D4230510591F18A8D55
:103590009B8D83309105D9F5AFE4B0E0EFE4F0E026
:1035A00080818F778C93AFE4B0E0EFE4F0E080812E
:1035B0008F7B8C932CC0AFE4B0E0EFE4F0E080812F
:1035C00080688C93AFE4B0E0EFE4F0E08081806449
:1035D0008C931DC0AFE4B0E0EFE4F0E08081806840
:1035E0008C93AFE4B0E0EFE4F0E080818F7B8C93CC
:1035F0000EC0AFE4B0E0EFE4F0E080818F778C9311
:10360000AFE4B0E0EFE4F0E0808180648C930E944E
:103610000319CC01A0E0B0E0898B9A8BAB8BBC8BFB
:1036200069897A898B899C890E94CC0DDC01CB0148
:10363000BC01CD0120E030E040E051E40E943C0CB0
:10364000DC01CB018D879E87AF87B88B8091CE013F
:103650009091CF010196CC01A0E0B0E0BC01CD017A
:103660000E94CC0DDC01CB01BC01CD012D853E8536
:103670004F8558890E94420BDC01CB01BC01CD0172
:103680000E944401DC01CB0189879A87AB87BC8704
:103690008D899E89AF89B88D28EE33E040E050E0F7
:1036A000BC01CD010E94343BDC01CB0129853A8568
:1036B0004B855C85BC01CD010E94673BDA01C901E5
:1036C0008D839E83AF83B8878091CE019091CF0187
:1036D00001967C0100E010E08D899E89AF89B88D4C
:1036E00028EE33E040E050E0BC01CD010E94343BC5
:1036F000DC01CB0129853A854B855C85BC01CD0178
:103700000E94673BDC01CB01A8019701281B390B04
:103710004A0B5B0BDA01C90189839A83AB83BC83B3
:103720008091CE019091CF0101969C0140E050E044
:1037300089819A81AB81BC8182179307A407B50761
:1037400078F489819A810E94EC188D819E81AF81E5
:10375000B8850196A11DB11D8D839E83AF83B88767
:103760000E94C1181BC0E8E5F0E08081882F90E03E
:10377000807190700097B9F38D819E81AF81B8857B
:103780000197A109B1098D839E83AF83B887A8E50E
:10379000B0E0E8E5F0E0808180618C938D819E81CE
:1037A000AF81B8850097A105B105E9F60E94D81848
:1037B0006B960FB6F894DEBF0FBECDBFCF91DF91F1
:1037C0001F910F91FF90EF900895DF93CF9300D05A
:1037D000CDB7DEB79A83898389819A819093D1018D
:1037E0008093D0010F900F90CF91DF910895DF93D8
:1037F000CF93CDB7DEB72B970FB6F894DEBF0FBED1
:10380000CDBF6F83788789879A874B8788EE93E04F
:10381000A0E0B0E02F81388549855A85BC01CD01F3
:103820000E94673BDA01C9019E838D838B85282F17
:1038300030E08D819E81AC01249FC001259F900DB9
:10384000349F900D112424E630E0B9010E94533BCF
:10385000CB019C838B832D813E818B819C81A9012F
:10386000481B590BCA019A838983E091D001F091DA
:10387000D10109958B819C81CC01A0E0B0E0BC0115
:10388000CD0144E00E943719E091D001F091D101BF
:10389000099589819A81CC01A0E0B0E0BC01CD01FD
:1038A00044E00E9437192B960FB6F894DEBF0FBE86
:1038B000CDBFCF91DF910895DF93CF9300D0CDB7E7
:1038C000DEB789836A838981882F90E0009721F48D
:1038D000E3E4F0E08A8180830F900F90CF91DF9135
:1038E0000895EF920F93DF93CF93CDB7DEB72E9766
:1038F0000FB6F894DEBF0FBECDBF89836A834B83BA
:103900002C830D83EE828981282F30E03E872D871E
:103910008D859E858130910509F44DC02D853E85AC
:10392000223031052CF48D859E85009761F051C0C1
:103930002D853E852230310579F18D859E85833038
:10394000910581F046C0A5E4B0E0E5E4F0E08081B7
:103950008F7B8C93A5E4B0E0E5E4F0E08081877F85
:103960008C9337C0A5E4B0E0E5E4F0E080818F7B84
:103970008C93A5E4B0E0E5E4F0E0808188608C936E
:103980008C81882F90E09093DF018093DE0180E0AE
:103990006C810E945C1C1DC0A5E4B0E0E5E4F0E091
:1039A000808180648C93A5E4B0E0E5E4F0E0808160
:1039B00088608C930EC0A5E4B0E0E5E4F0E080817F
:1039C00080648C93A5E4B0E0E5E4F0E08081877F3B
:1039D0008C938A81282F30E03C872B878B859C85B0
:1039E00083309105C9F12B853C85243031057CF469
:1039F0008B859C858130910509F12B853C85223092
:103A000031051CF58B859C85009789F040C02B857E
:103A10003C852530310571F18B859C85853091057C
:103A200014F12B853C852630310559F130C081E0F9
:103A300090E09093DD018093DC0129C082E090E06A
:103A40009093DD018093DC0122C083E090E09093AD
:103A5000DD018093DC011BC084E090E09093DD01E8
:103A60008093DC0114C085E090E09093DD018093A9
:103A7000DC010DC086E090E09093DD018093DC01D5
:103A800006C087E090E09093DD018093DC018D819A
:103A9000282F30E03A87298789859A85009731F069
:103AA00029853A852130310549F00FC0A2E4B0E004
:103AB000E2E4F0E08081877F8C9307C0A2E4B0E06D
:103AC000E2E4F0E0808188608C938E81282F30E0E2
:103AD00038872F838F819885009731F02F81388523
:103AE0002130310561F015C081E00E943738A9E529
:103AF000B0E0E9E5F0E0808180648C930AC081E069
:103B00000E943738A9E5B0E0E9E5F0E080818068FF
:103B10008C932E960FB6F894DEBF0FBECDBFCF911B
:103B2000DF910F91EF900895DF93CF9300D0CDB741
:103B3000DEB78091DC019091DD018130910529F49F
:103B400081E090E09A83898334C08091DC01909178
:103B5000DD018230910529F488E090E09A83898321
:103B600028C08091DC019091DD018330910529F41A
:103B700080E290E09A8389831CC08091DC0190915F
:103B8000DD018430910529F480E490E09A838983F3
:103B900010C08091DC019091DD018530910529F400
:103BA00080E091E09A83898304C080E094E09A8366
:103BB000898389819A810F900F90CF91DF91089529
:103BC000DF93CF93CDB7DEB7A5E4B0E0E5E4F0E056
:103BD0008081887F8C93A5E4B0E0E5E4F0E020816B
:103BE0008091DC019091DD01822B8C93CF91DF914C
:103BF0000895DF93CF930F92CDB7DEB78983E4E4C6
:103C0000F0E0898180830F90CF91DF910895DF9359
:103C1000CF93CDB7DEB7A5E4B0E0E5E4F0E0808176
:103C2000887F8C9380E00E94F91DCF91DF910895E9
:103C3000DF93CF9300D0CDB7DEB79A838983898194
:103C40009A819093E9018093E8010F900F90CF91B2
:103C5000DF910895DF93CF93CDB7DEB769970FB6A5
:103C6000F894DEBF0FBECDBF6B8B7C8B8D8B9E8B94
:103C70004F8B0E94941DCC01A0E0B0E08F87988B01
:103C8000A98BBA8B6F85788989899A890E94CC0D16
:103C9000DC01CB01BC01CD0120E030E040E051E48B
:103CA0000E943C0CDC01CB018B879C87AD87BE87D3
:103CB0006B857C858D859E8520E030E040E853E46F
:103CC0000E94420BDC01CB01BC01CD010E944401EA
:103CD000DC01CB018F839887A987BA878B899C8960
:103CE000AD89BE8928EE33E040E050E0BC01CD0153
:103CF0000E94343BDC01CB012F81388549855A85F0
:103D0000BC01CD010E94673BDA01C9018B839C8312
:103D1000AD83BE838B899C89AD89BE8928EE33E053
:103D200040E050E0BC01CD010E94343BDC01CB01FE
:103D30002F81388549855A85BC01CD010E94673B9A
:103D4000DC01CB019C0180E091E0821B930B9A8304
:103D5000898389819A818F3F910509F078F4E4E4A1
:103D6000F0E0898180838B819C81AD81BE81019649
:103D7000A11DB11D8B839C83AD83BE830E94E01D7A
:103D80008F89282F30E0398F288F888D998D99233E
:103D90000CF455C0288D398D223031053CF0888DCA
:103DA000998D8230910509F440C049C08B819C8176
:103DB000AD81BE818093E0019093E101A093E20187
:103DC000B093E3018091E0019091E101A091E201C3
:103DD000B091E3018093E4019093E501A093E601A3
:103DE000B093E7012CC0E8E5F0E08081882F90E0F7
:103DF0000024969587950794969587950794982F14
:103E0000802D009791F08B819C81AD81BE810197BF
:103E1000A109B1098B839C83AD83BE83A8E5B0E083
:103E2000E8E5F0E0808180648C938B819C81AD819A
:103E3000BE810097A105B105B1F60E94071E6996E3
:103E40000FB6F894DEBF0FBECDBFCF91DF910895BE
:103E50001F920F920FB60F9211242F933F934F93FF
:103E60005F936F937F938F939F93AF93BF93EF93E2
:103E7000FF93DF93CF93CDB7DEB78091E0019091B0
:103E8000E101A091E201B091E3010097A105B10524
:103E9000A1F08091E0019091E101A091E201B09147
:103EA000E3010197A109B1098093E0019093E10139
:103EB000A093E201B093E30115C08091E4019091D9
:103EC000E501A091E601B091E7018093E0019093B4
:103ED000E101A093E201B093E301E091E801F091E8
:103EE000E9010995CF91DF91FF91EF91BF91AF91DA
:103EF0009F918F917F916F915F914F913F912F9102
:103F00000F900FBE0F901F901895DF93CF9300D0A6
:103F1000CDB7DEB79A83898389819A819093E9012D
:103F20008093E8010F900F90CF91DF910895DF9378
:103F3000CF93CDB7DEB72B970FB6F894DEBF0FBE89
:103F4000CDBF8F83488759876A877B8788EE93E048
:103F5000A0E0B0E0288539854A855B85BC01CD01AC
:103F60000E94673BDA01C9019E838D838F81282FD0
:103F700030E08D819E81AC01249FC001259F900D72
:103F8000349F900D112424E630E0B9010E94533B88
:103F9000CB019C838B832D813E818B819C81A901E8
:103FA000481B590BCA019A838983E091E801F0917B
:103FB000E90109958B819C81CC01A0E0B0E0BC01B6
:103FC000CD0142E00E942A1EE091E801F091E90152
:103FD000099589819A81CC01A0E0B0E0BC01CD01B6
:103FE00042E00E942A1E2B960FB6F894DEBF0FBE49
:103FF000CDBFCF91DF9108950F931F93DF93CF93A0
:10400000CDB7DEB769970FB6F894DEBF0FBECDBF50
:104010006B8B7C8B8D8B9E8B4F8B8F89282F30E009
:10402000398F288F888D998D8130910509F441C091
:10403000288D398D223031052CF4888D998D00978B
:1040400049F145C0288D398D22303105A1F0888D88
:10405000998D83309105D9F5A5E4B0E0E5E4F0E071
:1040600080818F7E8C93A5E4B0E0E5E4F0E0808170
:104070008F7D8C932CC0A5E4B0E0E5E4F0E0808176
:1040800080618C93A5E4B0E0E5E4F0E080818F7D71
:104090008C931DC0A5E4B0E0E5E4F0E08081806190
:1040A0008C93A5E4B0E0E5E4F0E0808180628C933D
:1040B0000EC0A5E4B0E0E5E4F0E080818F7E8C9353
:1040C000A5E4B0E0E5E4F0E0808180628C930E949A
:1040D000941DCC01A0E0B0E08F87988BA98BBA8BA0
:1040E0006F85788989899A890E94CC0DDC01CB0182
:1040F000BC01CD0120E030E040E051E40E943C0CE6
:10410000DC01CB018B879C87AD87BE878091DE0168
:104110009091DF010196CC01A0E0B0E0BC01CD019F
:104120000E94CC0DDC01CB01BC01CD012B853C856F
:104130004D855E850E94420BDC01CB01BC01CD01A7
:104140000E944401DC01CB018F839887A987BA873D
:104150008B899C89AD89BE8928EE33E040E050E030
:10416000BC01CD010E94343BDC01CB012F8138859D
:1041700049855A85BC01CD010E94673BDA01C9011E
:104180008B839C83AD83BE830091DE011091DF01A0
:104190008B899C89AD89BE8928EE33E040E050E0F0
:1041A000BC01CD010E94343BDC01CB012F8138855D
:1041B00049855A85BC01CD010E94673BDC01CB01DA
:1041C0009801281B390BC90101969A838983809134
:1041D000DE019091DF019C012F5F3F4F89819A8121
:1041E0008217930778F4E4E4F0E0898180838B817F
:1041F0009C81AD81BE810196A11DB11D8B839C83E5
:10420000AD83BE830E94E01D22C0E8E5F0E080811E
:10421000882F90E00024969587950794969587952A
:104220000794982F802D009791F08B819C81AD8110
:10423000BE810197A109B1098B839C83AD83BE83A5
:10424000A8E5B0E0E8E5F0E0808180648C938B81A4
:104250009C81AD81BE810097A105B105B1F60E9498
:10426000071E69960FB6F894DEBF0FBECDBFCF9183
:10427000DF911F910F910895DF93CF9300D00F929C
:10428000CDB7DEB789838981282F30E03B832A832D
:104290008A819B81009769F02A813B812130310519
:1042A00081F4ADE2B0E0EDE2F0E0808180648C93D7
:1042B0000FC0ADE2B0E0EDE2F0E080818F7B8C9347
:1042C00007C0ADE2B0E0EDE2F0E0808180648C9365
:1042D0000F900F900F90CF91DF910895DF93CF93C0
:1042E00000D0CDB7DEB79A83898389819A81909374
:1042F0001302809312020F900F90CF91DF910895D7
:10430000DF93CF93CDB7DEB72F970FB6F894DEBF0C
:104310000FBECDBF9B838A83198289818064898384
:10432000EA81FB818581282F30E03F872E878E85AB
:104330009F85009709F4FBC02E853F85213031050C
:1043400009F0F5C0EA81FB818281282F30E03D87AA
:104350002C878C859D85009731F02C853D852130FB
:10436000310529F007C089818061898303C0898173
:104370008F7E8983EA81FB818481282F30E03B870F
:104380002A878A859B858330910509F451C02A8547
:104390003B85243031057CF48A859B8581309105ED
:1043A000E9F02A853B8522303105A4F58A859B8575
:1043B000009711F174C02A853B852530310509F439
:1043C00053C08A859B85853091050CF43FC02A85B2
:1043D0003B852630310509F455C061C08981816073
:1043E000898389818D7F8983AEE2B0E0EEE2F0E0DF
:1043F00080818E7F8C9353C089818E7F8983898150
:104400008D7F8983AEE2B0E0EEE2F0E080818E7FC6
:104410008C9345C089818E7F89838981826089835D
:10442000AEE2B0E0EEE2F0E080818E7F8C9337C0A8
:10443000898181608983898182608983AEE2B0E06D
:10444000EEE2F0E080818E7F8C9329C089818E7F9F
:10445000898389818D7F8983AEE2B0E0EEE2F0E06E
:10446000808181608C931BC089818160898389816F
:104470008D7F8983AEE2B0E0EEE2F0E08081816082
:104480008C930DC089818E7F898389818260898325
:10449000AEE2B0E0EEE2F0E0808181608C93EA81F0
:1044A000FB818181282F30E039872887888599858D
:1044B000009731F0288539852130310529F007C072
:1044C00089818B7F898303C0898184608983EA81A4
:1044D000FB818081282F30E03F832E838E819F8156
:1044E000009731F02E813F812130310529F007C03E
:1044F0008981877F898303C0898188608983EA8174
:10450000FB818381282F30E03D832C838C819D812A
:10451000009731F02C813D812130310529F007C011
:1045200089818062898303C089818F7D8983EDE2DF
:10453000F0E0898180832F960FB6F894DEBF0FBE1E
:10454000CDBFCF91DF910895DF93CF930F92CDB779
:10455000DEB78983EFE2F0E089818083EEE2F0E06C
:1045600080818823DCF70F90CF91DF910895DF934E
:10457000CF930F92CDB7DEB7EEE2F0E080818823D3
:10458000DCF7EFE2F0E08081898389810F90CF91A1
:10459000DF9108951F920F920FB60F9211248F93FF
:1045A000EF93FF93DF93CF93CDB7DEB7EFE2F0E069
:1045B0008091EA018083CF91DF91FF91EF918F91FC
:1045C0000F900FBE0F901F901895DF93CF9300D0E0
:1045D00000D00F92CDB7DEB789837B836A83898150
:1045E000282F30E03D832C838C819D818130910583
:1045F00081F02C813D812230310591F08C819D81AB
:104600000097A1F48A819B819093170280931602F0
:104610000DC08A819B81909315028093140206C07D
:104620008A819B8190931902809318020F900F90BA
:104630000F900F900F90CF91DF910895DF93CF935C
:1046400000D00F92CDB7DEB789838981282F30E063
:104650003B832A838A819B818130910589F02A815D
:104660003B8122303105A1F08A819B810097B9F40A
:10467000ABE5B0E0EBE5F0E0808180648C930FC0A7
:10468000ABE5B0E0EBE5F0E0808180688C9307C09B
:10469000ABE5B0E0EBE5F0E0808180628C930F90B9
:1046A0000F900F90CF91DF910895DF93CF93CDB707
:1046B000DEB728970FB6F894DEBF0FBECDBF898353
:1046C0006A838981282F30E038872F838F819885EE
:1046D000009739F02F8138852130310509F45DC00C
:1046E000B7C08A81282F30E03E832D838D819E8143
:1046F0008130910509F442C02D813E81223031057F
:104700002CF48D819E81009761F0A2C02D813E81A5
:1047100022303105A9F08D819E8183309105F9F019
:1047200097C0A5E5B0E0E5E5F0E0808181608C937D
:10473000A5E5B0E0E5E5F0E080818D7F8C9388C051
:10474000A5E5B0E0E5E5F0E080818E7F8C93A5E5FE
:10475000B0E0E5E5F0E0808182608C9379C0A5E56A
:10476000B0E0E5E5F0E0808181608C93A5E5B0E004
:10477000E5E5F0E0808182608C936AC0A5E5B0E059
:10478000E5E5F0E080818E7F8C93A5E5B0E0E5E57E
:10479000F0E080818D7F8C935BC08A81282F30E090
:1047A0003C832B838B819C818130910509F442C02D
:1047B0002B813C81223031052CF48B819C81009728
:1047C00061F046C02B813C8122303105A9F08B81FC
:1047D0009C8183309105F9F03BC0A5E5B0E0E5E5AB
:1047E000F0E0808184608C93A5E5B0E0E5E5F0E041
:1047F0008081877F8C932CC0A5E5B0E0E5E5F0E0F3
:1048000080818B7F8C93A5E5B0E0E5E5F0E08081C9
:1048100088608C931DC0A5E5B0E0E5E5F0E08081FF
:1048200084608C93A5E5B0E0E5E5F0E080818860E8
:104830008C930EC0A5E5B0E0E5E5F0E080818B7FCC
:104840008C93A5E5B0E0E5E5F0E08081877F8C936F
:1048500028960FB6F894DEBF0FBECDBFCF91DF9183
:104860000895DF93CF93CDB7DEB729970FB6F894AD
:10487000DEBF0FBECDBF9B838A8381E00E943738A5
:1048800019820AC18981882F90E0FC01E551FE4F11
:104890008081282F30E03987288788859985813065
:1048A000910509F47AC0288539852230310509F44B
:1048B000E3C088859985009709F0EBC0ABE5B0E0CF
:1048C000EBE5F0E0808180648C938A819B819093FA
:1048D0001702809316028981882F90E0FC01E85826
:1048E000FE4F8081282F30E03F832E838E819F8171
:1048F0008130910509F442C02E813F81223031057B
:104900002CF48E819F81009761F0C3C02E813F817E
:1049100022303105A9F08E819F8183309105F9F015
:10492000B8C0A5E5B0E0E5E5F0E0808181608C935A
:10493000A5E5B0E0E5E5F0E080818D7F8C93A9C02E
:10494000A5E5B0E0E5E5F0E080818E7F8C93A5E5FC
:10495000B0E0E5E5F0E0808182608C939AC0A5E547
:10496000B0E0E5E5F0E0808181608C93A5E5B0E002
:10497000E5E5F0E0808182608C938BC0A5E5B0E036
:10498000E5E5F0E080818E7F8C93A5E5B0E0E5E57C
:10499000F0E080818D7F8C937CC0ABE5B0E0EBE5EF
:1049A000F0E0808180688C938A819B8190931502CE
:1049B000809314028981882F90E0FC01E858FE4F13
:1049C0008081282F30E03D832C838C819D81813034
:1049D000910509F442C02C813D81223031052CF42F
:1049E0008C819D81009761F054C02C813D812230E3
:1049F0003105A9F08C819D8183309105F9F049C082
:104A0000A5E5B0E0E5E5F0E0808184608C93A5E564
:104A1000B0E0E5E5F0E08081877F8C933AC0A5E5C2
:104A2000B0E0E5E5F0E080818B7F8C93A5E5B0E018
:104A3000E5E5F0E0808188608C932BC0A5E5B0E0CF
:104A4000E5E5F0E0808184608C93A5E5B0E0E5E5E4
:104A5000F0E0808188608C931CC0A5E5B0E0E5E5BE
:104A6000F0E080818B7F8C93A5E5B0E0E5E5F0E098
:104A70008081877F8C930DC08A819B8190931902DE
:104A800080931802ABE5B0E0EBE5F0E08081806256
:104A90008C9389818F5F89838981882309F4F2CE81
:104AA00029960FB6F894DEBF0FBECDBFCF91DF9130
:104AB00008951F920F920FB60F9211242F933F93D8
:104AC0004F935F936F937F938F939F93AF93BF9316
:104AD000EF93FF93DF93CF93CDB7DEB7E09116024C
:104AE000F09117020995CF91DF91FF91EF91BF915E
:104AF000AF919F918F917F916F915F914F913F9176
:104B00002F910F900FBE0F901F901895DF93CF93AA
:104B1000CDB7DEB7AAE3B0E0EAE3F0E080818160E0
:104B20008C93AAE3B0E0EAE3F0E0808182608C93AA
:104B3000AAE3B0E0EAE3F0E0808184608C93AAE32A
:104B4000B0E0EAE3F0E0808188608C93AAE3B0E013
:104B5000EAE3F0E0808180618C93AAE3B0E0EAE3CD
:104B6000F0E0808180628C93AAE3B0E0EAE3F0E0B9
:104B7000808180648C93AAE3B0E0EAE3F0E0808176
:104B800080688C93A7E3B0E0E7E3F0E08081816088
:104B90008C93AAE3B0E0EAE3F0E0808182608C933A
:104BA000A7E3B0E0E7E3F0E0808184608C93A7E3C3
:104BB000B0E0E7E3F0E0808188608C93A7E3B0E0A9
:104BC000E7E3F0E0808180618C93A7E3B0E0E7E366
:104BD000F0E0808180628C93A7E3B0E0E7E3F0E04F
:104BE000808180648C93A7E3B0E0E7E3F0E080810C
:104BF00080688C93A4E3B0E0E4E3F0E080818E7FF2
:104C00008C93A4E3B0E0E4E3F0E080818D7F8C93AB
:104C1000A4E3B0E0E4E3F0E080818B7F8C93A4E335
:104C2000B0E0E4E3F0E08081877F8C93A4E3B0E020
:104C3000E4E3F0E080818F7E8C93A4E3B0E0E4E3D2
:104C4000F0E080818F7D8C93A4E3B0E0E4E3F0E0BA
:104C500080818F7B8C93A4E3B0E0E4E3F0E080817B
:104C60008F778C93A1E3B0E0E1E3F0E080818E7F69
:104C70008C93A1E3B0E0E1E3F0E080818D7F8C9341
:104C8000A1E3B0E0E1E3F0E080818B7F8C93A1E3CE
:104C9000B0E0E1E3F0E08081877F8C93A1E3B0E0B6
:104CA000E1E3F0E080818F7E8C93A1E3B0E0E1E36B
:104CB000F0E080818F7D8C93A1E3B0E0E1E3F0E050
:104CC00080818F7B8C93A1E3B0E0E1E3F0E0808111
:104CD0008F778C93CF91DF910895DF93CF93CDB7EA
:104CE000DEB72C970FB6F894DEBF0FBECDBF898319
:104CF0006A838981282F30E03C872B878B859C85B0
:104D000081309105E1F12B853C85223031052CF471
:104D10008B859C85009771F09EC02B853C85223049
:104D2000310509F451C08B859C858330910509F4C8
:104D30006FC091C08A81282F30E03A872987898502
:104D40009A858130910599F029853A85223031057F
:104D500049F089859A85009709F07DC0EAE3F0E083
:104D6000108279C0EAE3F0E08FEF808374C0EAE359
:104D7000F0E01082EBE3F0E08FEF80836CC08A817B
:104D8000282F30E038872F838F81988581309105D7
:104D900099F02F8138852230310549F08F8198852F
:104DA000009709F058C0E7E3F0E0108254C0E7E351
:104DB000F0E08FEF80834FC0E7E3F0E01082E8E39C
:104DC000F0E08FEF808347C08A81282F30E03E8358
:104DD0002D838D819E818130910591F02D813E81C1
:104DE0002230310541F08D819E810097A1F5E4E3E9
:104DF000F0E0108230C0E4E3F0E08FEF80832BC05E
:104E0000E4E3F0E01082E5E3F0E08FEF808323C07D
:104E10008A81282F30E03C832B838B819C818130D9
:104E2000910591F02B813C812230310541F08B813D
:104E30009C81009781F4E1E3F0E010820CC0E1E393
:104E4000F0E08FEF808307C0E1E3F0E01082E2E35F
:104E5000F0E08FEF80832C960FB6F894DEBF0FBE84
:104E6000CDBFCF91DF910895DF93CF93CDB7DEB75C
:104E700064970FB6F894DEBF0FBECDBF89836A83F7
:104E80008981282F30E03C8B2B8B8B899C8981304A
:104E90009105A9F12B893C89223031052CF48B89AD
:104EA0009C89009771F082C02B893C8922303105A2
:104EB00009F443C08B899C898330910509F45AC059
:104EC00075C08A81282F30E03A8B298B89899A898D
:104ED000009771F029893A892130310509F066C0BF
:104EE000EBE3F0E03081EBE3F0E08FEF80835EC036
:104EF000EBE3F0E08081EBE3F0E0108257C08A81C1
:104F0000282F30E03E872D878D859E85009771F094
:104F10002D853E852130310509F048C0E8E3F0E0F9
:104F20003081E8E3F0E08FEF808340C0E8E3F0E019
:104F30008081E8E3F0E0108239C08A81282F30E0D8
:104F40003A87298789859A85009769F029853A8566
:104F50002130310559F5E5E3F0E03081E5E3F0E09B
:104F60008FEF808323C0E5E3F0E08081E5E3F0E0AC
:104F700010821CC08A81282F30E03E832D838D81D2
:104F80009E81009769F02D813E812130310571F4B9
:104F9000E2E3F0E03081E2E3F0E08FEF808306C0EF
:104FA000E2E3F0E08081E2E3F0E0108264960FB685
:104FB000F894DEBF0FBECDBFCF91DF910895DF9390
:104FC000CF9300D00F92CDB7DEB789838981282F88
:104FD00030E03B832A838A819B8181309105E9F00F
:104FE0002A813B81223031052CF48A819B810097F4
:104FF00061F02AC02A813B8122303105B1F08A81DB
:105000009B8183309105C9F01FC0ABE3B0E0EBE3B7
:10501000F0E0808180958C9317C0A8E3B0E0E8E3CE
:10502000F0E0808180958C930FC0A5E3B0E0E5E3CC
:10503000F0E0808180958C9307C0A2E3B0E0E2E3CA
:10504000F0E0808180958C930F900F900F90CF911E
:10505000DF910895DF93CF9300D000D00F92CDB7AA
:10506000DEB789837B836A838981282F30E03D8383
:105070002C838C819D8181309105E1F02C813D81D3
:10508000223031052CF48C819D81009761F026C07F
:105090002C813D8122303105A1F08C819D818330AE
:1050A0009105B1F01BC0E9E3F0E08081EA81FB816A
:1050B000808314C0E6E3F0E08081EA81FB81808395
:1050C0000DC0E3E3F0E08081EA81FB81808306C0CC
:1050D000E0E3F0E08081EA81FB8180830F900F9014
:1050E0000F900F900F90CF91DF910895DF93CF93A2
:1050F000CDB7DEB72D970FB6F894DEBF0FBECDBF8C
:1051000089836A834B838981282F30E03D872C87F0
:105110008C859D858130910509F452C02C853D8593
:10512000223031052CF48C859D85009771F0F7C0F5
:105130002C853D852230310509F47DC08C859D8507
:105140008330910509F4B2C0EAC08B81282F30E08A
:105150003B872A878A859B8581309105F1F02A85D6
:105160003B852230310581F08A859B85009709F0C7
:10517000D6C0AAE3B0E0EAE3F0E08081982F8A810C
:10518000809589238C93CBC0AAE3B0E0EAE3F0E0FA
:1051900090818A81892B8C93C2C0AAE3B0E0EAE3B4
:1051A000F0E08081982F8A81809589238C93ABE3EE
:1051B000B0E0EBE3F0E090818A81892B8C93AFC063
:1051C0008B81282F30E03987288788859985813021
:1051D0009105F1F0288539852230310581F08885E7
:1051E0009985009709F09BC0A7E3B0E0E7E3F0E002
:1051F0008081982F8A81809589238C9390C0A7E322
:10520000B0E0E7E3F0E090818A81892B8C9387C03E
:10521000A7E3B0E0E7E3F0E08081982F8A818095F2
:1052200089238C93A8E3B0E0E8E3F0E090818A81E1
:10523000892B8C9374C08B81282F30E03F832E8381
:105240008E819F8181309105F1F02E813F81223046
:10525000310581F08E819F81009709F060C0A4E341
:10526000B0E0E4E3F0E08081982F8A818095892383
:105270008C9355C0A4E3B0E0E4E3F0E090818A8130
:10528000892B8C934CC0A4E3B0E0E4E3F0E0808190
:10529000982F8A81809589238C93A5E3B0E0E5E37C
:1052A000F0E090818A81892B8C9339C08B81282FE3
:1052B00030E03D832C838C819D8181309105E9F024
:1052C0002C813D812230310579F08C819D810097C0
:1052D00031F5A1E3B0E0E1E3F0E08081982F8A812D
:1052E000809589238C931BC0A1E3B0E0E1E3F0E05B
:1052F00090818A81892B8C9312C0A1E3B0E0E1E315
:10530000F0E08081982F8A81809589238C93A2E395
:10531000B0E0E2E3F0E090818A81892B8C932D96B6
:105320000FB6F894DEBF0FBECDBFCF91DF910895C9
:10533000DF93CF9300D000D0CDB7DEB78A837C83D4
:105340006B83198206C089818F5F89838A818695E4
:105350008A838A818230B8F7EB81FC8189818083DE
:105360000F900F900F900F90CF91DF910895DF93E2
:10537000CF93CDB7DEB72E970FB6F894DEBF0FBE32
:10538000CDBF8A836B834C838B819E012F5F3F4F00
:10539000B9010E9498298A81282F30E03E872D8705
:1053A0008D859E858130910509F44FC02D853E8500
:1053B000223031052CF48D859E85009771F0EBC06D
:1053C0002D853E852230310509F477C08D859E8577
:1053D0008330910509F4A9C0DEC08C81282F30E00C
:1053E0003C872B878B859C850097D1F02B853C854E
:1053F0002130310509F0CFC0ABE3B0E0EBE3F0E0E2
:105400008081482F8981282F30E081E090E0022EB2
:1054100002C0880F991F0A94E2F7842B8C93BBC0BB
:10542000ABE3B0E0EBE3F0E08081482F8981282FE7
:1054300030E081E090E0022E02C0880F991F0A94AC
:10544000E2F7809584238C93A6C08C81282F30E0CE
:105450003A87298789859A850097D1F029853A85E9
:105460002130310509F097C0A8E3B0E0E8E3F0E0AF
:105470008081482F8981282F30E081E090E0022E42
:1054800002C0880F991F0A94E2F7842B8C9383C083
:10549000A8E3B0E0E8E3F0E08081482F8981282F7D
:1054A00030E081E090E0022E02C0880F991F0A943C
:1054B000E2F7809584238C936EC08C81282F30E096
:1054C00038872F838F8198850097D1F02F81388579
:1054D0002130310509F05FC0A5E3B0E0E5E3F0E07D
:1054E0008081482F8981282F30E081E090E0022ED2
:1054F00002C0880F991F0A94E2F7842B8C934BC04B
:10550000A5E3B0E0E5E3F0E08081482F8981282F12
:1055100030E081E090E0022E02C0880F991F0A94CB
:10552000E2F7809584238C9336C08C81282F30E05D
:105530003E832D838D819E810097C9F02D813E8110
:105540002130310541F5A2E3B0E0E2E3F0E08081F3
:10555000482F8981282F30E081E090E0022E02C0A0
:10556000880F991F0A94E2F7842B8C9314C0A2E34E
:10557000B0E0E2E3F0E08081482F8981282F30E01D
:1055800081E090E0022E02C0880F991F0A94E2F792
:10559000809584238C932E960FB6F894DEBF0FBEB1
:1055A000CDBFCF91DF910895DF93CF9300D000D08E
:1055B000CDB7DEB789836A838981282F30E03C83A9
:1055C0002B838B819C8181309105F1F02B813C8173
:1055D000223031052CF48B819C81009761F02EC024
:1055E0002B813C8122303105C1F08B819C8183303D
:1055F0009105E1F023C0ABE3B0E0EBE3F0E0908194
:105600008A8189278C931AC0A8E3B0E0E8E3F0E030
:1056100090818A8189278C9311C0A5E3B0E0E5E3EE
:10562000F0E090818A8189278C9308C0A2E3B0E0E2
:10563000E2E3F0E090818A8189278C930F900F90AC
:105640000F900F90CF91DF910895DF93CF93CDB757
:10565000DEB727970FB6F894DEBF0FBECDBF8A83A3
:105660006B835D834C838B819E012F5F3F4FB9011C
:105670000E9498298A81282F30E03F832E834E8113
:105680005F814130510559F18E819F8182309105B2
:1056900034F42E813F812115310569F05BC04E81C4
:1056A0005F814230510579F18E819F818330910570
:1056B00009F43DC04FC0E9E3F0E08081282F30E0DD
:1056C0008981882F90E0A90102C0559547958A9558
:1056D000E2F7CA018170EC81FD8180833BC0E6E383
:1056E000F0E08081282F30E08981882F90E0A901A7
:1056F00002C0559547958A95E2F7CA018170EC8101
:10570000FD81808327C0E3E3F0E08081282F30E033
:105710008981882F90E0A90102C0559547958A9507
:10572000E2F7CA018170EC81FD81808313C0E0E360
:10573000F0E08081282F30E08981882F90E0A90156
:1057400002C0559547958A95E2F7CA018170EC81B0
:10575000FD81808327960FB6F894DEBF0FBECDBFC4
:10576000CF91DF910895DF93CF93CDB7DEB72C971C
:105770000FB6F894DEBF0FBECDBF89836A838981DF
:10578000282F30E03C872B878B859C8581309105C5
:1057900009F44AC02B853C85223031052CF48B85D9
:1057A0009C85009771F0D7C02B853C852230310550
:1057B00009F46DC08B859C858330910509F49AC0EE
:1057C000CAC08A81282F30E03A87298789859A853F
:1057D00081309105D1F029853A852230310569F073
:1057E00089859A85009709F0B6C0AAE3B0E0EAE39C
:1057F000F0E080818F708C93AEC0AAE3B0E0EAE362
:10580000F0E08081806F8C93A6C0AAE3B0E0EAE369
:10581000F0E080818F708C93ABE3B0E0EBE3F0E0DD
:105820008081806F8C9397C08A81282F30E03887E1
:105830002F838F81988581309105D1F02F81388514
:105840002230310569F08F819885009709F083C077
:10585000A7E3B0E0E7E3F0E080818F708C937BC03A
:10586000A7E3B0E0E7E3F0E08081806F8C9373C042
:10587000A7E3B0E0E7E3F0E080818F708C93A8E3CA
:10588000B0E0E8E3F0E08081806F8C9364C08A81AF
:10589000282F30E03E832D838D819E8181309105BC
:1058A000D1F02D813E812230310569F08D819E81BC
:1058B000009709F050C0A4E3B0E0E4E3F0E0808199
:1058C0008F708C9348C0A4E3B0E0E4E3F0E0808103
:1058D000806F8C9340C0A4E3B0E0E4E3F0E080810B
:1058E0008F708C93A5E3B0E0E5E3F0E08081806FFA
:1058F0008C9331C08A81282F30E03C832B838B81AD
:105900009C8181309105C9F02B813C812230310589
:1059100061F08B819C810097F1F4A1E3B0E0E1E3B9
:10592000F0E080818F708C9316C0A1E3B0E0E1E3DA
:10593000F0E08081806F8C930EC0A1E3B0E0E1E3E2
:10594000F0E080818F708C93A2E3B0E0E2E3F0E0BE
:105950008081806F8C932C960FB6F894DEBF0FBEBB
:10596000CDBFCF91DF910895DF93CF93CDB7DEB751
:105970002C970FB6F894DEBF0FBECDBF89836A8324
:105980008981282F30E03C872B878B859C8581304F
:10599000910509F44AC02B853C85223031052CF451
:1059A0008B859C85009771F0D7C02B853C85223074
:1059B000310509F46DC08B859C858330910509F410
:1059C0009AC0CAC08A81282F30E03A872987898502
:1059D0009A8581309105D1F029853A8522303105AB
:1059E00069F089859A85009709F0B6C0AAE3B0E00E
:1059F000EAE3F0E08081807F8C93AEC0AAE3B0E060
:105A0000EAE3F0E080818F608C93A6C0AAE3B0E067
:105A1000EAE3F0E08081807F8C93ABE3B0E0EBE3DE
:105A2000F0E080818F608C9397C08A81282F30E0CE
:105A300038872F838F81988581309105D1F02F8110
:105A400038852230310569F08F819885009709F0FB
:105A500083C0A7E3B0E0E7E3F0E08081807F8C9330
:105A60007BC0A7E3B0E0E7E3F0E080818F608C9338
:105A700073C0A7E3B0E0E7E3F0E08081807F8C9320
:105A8000A8E3B0E0E8E3F0E080818F608C9364C02D
:105A90008A81282F30E03E832D838D819E81813045
:105AA0009105D1F02D813E812230310569F08D8143
:105AB0009E81009709F050C0A4E3B0E0E4E3F0E079
:105AC0008081807F8C9348C0A4E3B0E0E4E3F0E001
:105AD00080818F608C9340C0A4E3B0E0E4E3F0E009
